{
  "_format": "hh-sol-artifact-1",
  "contractName": "SQNET",
  "sourceName": "contracts/SQNET.sol",
  "abi": [
    {
      "inputs": [
        {
          "internalType": "address",
          "name": "_routerAddress",
          "type": "address"
        },
        {
          "internalType": "address",
          "name": "_sqtAddress",
          "type": "address"
        },
        {
          "internalType": "address",
          "name": "_usdtAddress",
          "type": "address"
        }
      ],
      "stateMutability": "nonpayable",
      "type": "constructor"
    },
    {
      "inputs": [
        {
          "internalType": "address",
          "name": "rewardToken0",
          "type": "address"
        },
        {
          "internalType": "address",
          "name": "rewardToken1",
          "type": "address"
        }
      ],
      "name": "claimRewards",
      "outputs": [],
      "stateMutability": "nonpayable",
      "type": "function"
    },
    {
      "inputs": [
        {
          "internalType": "address",
          "name": "user",
          "type": "address"
        }
      ],
      "name": "countSqtReward",
      "outputs": [
        {
          "internalType": "uint256",
          "name": "userReward",
          "type": "uint256"
        }
      ],
      "stateMutability": "nonpayable",
      "type": "function"
    },
    {
      "inputs": [
        {
          "internalType": "uint256",
          "name": "sqtIn",
          "type": "uint256"
        }
      ],
      "name": "getAvailableUsdtRewards",
      "outputs": [
        {
          "internalType": "uint256",
          "name": "",
          "type": "uint256"
        }
      ],
      "stateMutability": "view",
      "type": "function"
    },
    {
      "inputs": [
        {
          "internalType": "address",
          "name": "_address",
          "type": "address"
        }
      ],
      "name": "getLastClaim",
      "outputs": [
        {
          "internalType": "uint256",
          "name": "",
          "type": "uint256"
        }
      ],
      "stateMutability": "view",
      "type": "function"
    },
    {
      "inputs": [
        {
          "internalType": "uint256",
          "name": "amount",
          "type": "uint256"
        }
      ],
      "name": "getSplittedTaxes",
      "outputs": [
        {
          "internalType": "uint256",
          "name": "marketingAmountSqt",
          "type": "uint256"
        },
        {
          "internalType": "uint256",
          "name": "liquidityAmountSqt",
          "type": "uint256"
        }
      ],
      "stateMutability": "nonpayable",
      "type": "function"
    },
    {
      "inputs": [
        {
          "internalType": "address",
          "name": "",
          "type": "address"
        }
      ],
      "name": "lastClaims",
      "outputs": [
        {
          "internalType": "uint256",
          "name": "",
          "type": "uint256"
        }
      ],
      "stateMutability": "view",
      "type": "function"
    },
    {
      "inputs": [
        {
          "internalType": "address",
          "name": "pair",
          "type": "address"
        },
        {
          "internalType": "uint256",
          "name": "liquidity",
          "type": "uint256"
        },
        {
          "internalType": "uint256",
          "name": "amountTokenMin",
          "type": "uint256"
        },
        {
          "internalType": "uint256",
          "name": "amountETHMin",
          "type": "uint256"
        },
        {
          "internalType": "address",
          "name": "to",
          "type": "address"
        }
      ],
      "name": "removeLiquidityETH",
      "outputs": [],
      "stateMutability": "nonpayable",
      "type": "function"
    },
    {
      "inputs": [
        {
          "internalType": "address",
          "name": "_address",
          "type": "address"
        }
      ],
      "name": "setRouterAddress",
      "outputs": [],
      "stateMutability": "nonpayable",
      "type": "function"
    },
    {
      "inputs": [
        {
          "internalType": "address",
          "name": "_address",
          "type": "address"
        }
      ],
      "name": "setSqtAddress",
      "outputs": [],
      "stateMutability": "nonpayable",
      "type": "function"
    },
    {
      "inputs": [
        {
          "internalType": "address",
          "name": "_address",
          "type": "address"
        }
      ],
      "name": "setweth",
      "outputs": [],
      "stateMutability": "nonpayable",
      "type": "function"
    },
    {
      "inputs": [],
      "name": "swapMarketingTaxesForETH",
      "outputs": [],
      "stateMutability": "nonpayable",
      "type": "function"
    },
    {
      "inputs": [
        {
          "internalType": "address",
          "name": "_address",
          "type": "address"
        }
      ],
      "name": "transferOwnership",
      "outputs": [],
      "stateMutability": "nonpayable",
      "type": "function"
    },
    {
      "stateMutability": "payable",
      "type": "receive"
    }
  ],
  "bytecode": "0x60806040523480156200001157600080fd5b5060405162003b2238038062003b22833981810160405260608110156200003757600080fd5b81019080805190602001909291908051906020019092919080519060200190929190505050826000806101000a81548173ffffffffffffffffffffffffffffffffffffffff021916908373ffffffffffffffffffffffffffffffffffffffff16021790555081600160006101000a81548173ffffffffffffffffffffffffffffffffffffffff021916908373ffffffffffffffffffffffffffffffffffffffff1602179055506000809054906101000a900473ffffffffffffffffffffffffffffffffffffffff1673ffffffffffffffffffffffffffffffffffffffff1663ad5c46486040518163ffffffff1660e01b815260040160206040518083038186803b1580156200014557600080fd5b505afa1580156200015a573d6000803e3d6000fd5b505050506040513d60208110156200017157600080fd5b8101908080519060200190929190505050600360006101000a81548173ffffffffffffffffffffffffffffffffffffffff021916908373ffffffffffffffffffffffffffffffffffffffff16021790555080600460006101000a81548173ffffffffffffffffffffffffffffffffffffffff021916908373ffffffffffffffffffffffffffffffffffffffff16021790555033600260006101000a81548173ffffffffffffffffffffffffffffffffffffffff021916908373ffffffffffffffffffffffffffffffffffffffff1602179055505050506138cb80620002576000396000f3fe6080604052600436106100ab5760003560e01c80639ec5c7a9116100645780639ec5c7a9146102b3578063dddf31f114610309578063de0b5bef1461036e578063eec6ef0d146103bf578063f1e42ccd14610424578063f2fde38b14610495576100b2565b806341cb87fc146100b75780636587e4ce146101085780636ef70c881461019757806376317540146101e65780638778f415146101fd578063946563ef14610262576100b2565b366100b257005b600080fd5b3480156100c357600080fd5b50610106600480360360208110156100da57600080fd5b81019080803573ffffffffffffffffffffffffffffffffffffffff1690602001909291905050506104e6565b005b34801561011457600080fd5b50610195600480360360a081101561012b57600080fd5b81019080803573ffffffffffffffffffffffffffffffffffffffff169060200190929190803590602001909291908035906020019092919080359060200190929190803573ffffffffffffffffffffffffffffffffffffffff1690602001909291905050506105ec565b005b3480156101a357600080fd5b506101d0600480360360208110156101ba57600080fd5b8101908080359060200190929190505050610a4e565b6040518082815260200191505060405180910390f35b3480156101f257600080fd5b506101fb610fec565b005b34801561020957600080fd5b5061024c6004803603602081101561022057600080fd5b81019080803573ffffffffffffffffffffffffffffffffffffffff169060200190929190505050611871565b6040518082815260200191505060405180910390f35b34801561026e57600080fd5b506102b16004803603602081101561028557600080fd5b81019080803573ffffffffffffffffffffffffffffffffffffffff1690602001909291905050506118ba565b005b3480156102bf57600080fd5b506102ec600480360360208110156102d657600080fd5b81019080803590602001909291905050506119c1565b604051808381526020018281526020019250505060405180910390f35b34801561031557600080fd5b506103586004803603602081101561032c57600080fd5b81019080803573ffffffffffffffffffffffffffffffffffffffff169060200190929190505050611a87565b6040518082815260200191505060405180910390f35b34801561037a57600080fd5b506103bd6004803603602081101561039157600080fd5b81019080803573ffffffffffffffffffffffffffffffffffffffff169060200190929190505050611a9f565b005b3480156103cb57600080fd5b5061040e600480360360208110156103e257600080fd5b81019080803573ffffffffffffffffffffffffffffffffffffffff169060200190929190505050611ba6565b6040518082815260200191505060405180910390f35b34801561043057600080fd5b506104936004803603604081101561044757600080fd5b81019080803573ffffffffffffffffffffffffffffffffffffffff169060200190929190803573ffffffffffffffffffffffffffffffffffffffff169060200190929190505050611efc565b005b3480156104a157600080fd5b506104e4600480360360208110156104b857600080fd5b81019080803573ffffffffffffffffffffffffffffffffffffffff169060200190929190505050612c09565b005b600260009054906101000a900473ffffffffffffffffffffffffffffffffffffffff1673ffffffffffffffffffffffffffffffffffffffff163373ffffffffffffffffffffffffffffffffffffffff16146105a9576040517f08c379a000000000000000000000000000000000000000000000000000000000815260040180806020018281038252600a8152602001807f4f6e6c79206f776e65720000000000000000000000000000000000000000000081525060200191505060405180910390fd5b806000806101000a81548173ffffffffffffffffffffffffffffffffffffffff021916908373ffffffffffffffffffffffffffffffffffffffff16021790555050565b600160009054906101000a900473ffffffffffffffffffffffffffffffffffffffff1673ffffffffffffffffffffffffffffffffffffffff1663c6af580b60006040518263ffffffff1660e01b81526004018082151515158152602001915050600060405180830381600087803b15801561066657600080fd5b505af115801561067a573d6000803e3d6000fd5b505050508473ffffffffffffffffffffffffffffffffffffffff166323b872dd3330876040518463ffffffff1660e01b8152600401808473ffffffffffffffffffffffffffffffffffffffff1673ffffffffffffffffffffffffffffffffffffffff1681526020018373ffffffffffffffffffffffffffffffffffffffff1673ffffffffffffffffffffffffffffffffffffffff1681526020018281526020019350505050602060405180830381600087803b15801561073957600080fd5b505af115801561074d573d6000803e3d6000fd5b505050506040513d602081101561076357600080fd5b8101908080519060200190929190505050508473ffffffffffffffffffffffffffffffffffffffff1663095ea7b36000809054906101000a900473ffffffffffffffffffffffffffffffffffffffff16866040518363ffffffff1660e01b8152600401808373ffffffffffffffffffffffffffffffffffffffff1673ffffffffffffffffffffffffffffffffffffffff16815260200182815260200192505050602060405180830381600087803b15801561081d57600080fd5b505af1158015610831573d6000803e3d6000fd5b505050506040513d602081101561084757600080fd5b8101908080519060200190929190505050506000809054906101000a900473ffffffffffffffffffffffffffffffffffffffff1673ffffffffffffffffffffffffffffffffffffffff166302751cec600160009054906101000a900473ffffffffffffffffffffffffffffffffffffffff1686868686426040518763ffffffff1660e01b8152600401808773ffffffffffffffffffffffffffffffffffffffff1673ffffffffffffffffffffffffffffffffffffffff1681526020018681526020018581526020018481526020018373ffffffffffffffffffffffffffffffffffffffff1673ffffffffffffffffffffffffffffffffffffffff16815260200182815260200196505050505050506040805180830381600087803b15801561096e57600080fd5b505af1158015610982573d6000803e3d6000fd5b505050506040513d604081101561099857600080fd5b8101908080519060200190929190805190602001909291905050505050600160009054906101000a900473ffffffffffffffffffffffffffffffffffffffff1673ffffffffffffffffffffffffffffffffffffffff1663c6af580b60016040518263ffffffff1660e01b81526004018082151515158152602001915050600060405180830381600087803b158015610a2f57600080fd5b505af1158015610a43573d6000803e3d6000fd5b505050505050505050565b60006060600267ffffffffffffffff81118015610a6a57600080fd5b50604051908082528060200260200182016040528015610a995781602001602082028036833780820191505090505b509050600160009054906101000a900473ffffffffffffffffffffffffffffffffffffffff1681600081518110610acc57fe5b602002602001019073ffffffffffffffffffffffffffffffffffffffff16908173ffffffffffffffffffffffffffffffffffffffff1681525050600360009054906101000a900473ffffffffffffffffffffffffffffffffffffffff1681600181518110610b3657fe5b602002602001019073ffffffffffffffffffffffffffffffffffffffff16908173ffffffffffffffffffffffffffffffffffffffff16815250506060600267ffffffffffffffff81118015610b8a57600080fd5b50604051908082528060200260200182016040528015610bb95781602001602082028036833780820191505090505b509050600360009054906101000a900473ffffffffffffffffffffffffffffffffffffffff1681600081518110610bec57fe5b602002602001019073ffffffffffffffffffffffffffffffffffffffff16908173ffffffffffffffffffffffffffffffffffffffff1681525050600460009054906101000a900473ffffffffffffffffffffffffffffffffffffffff1681600181518110610c5657fe5b602002602001019073ffffffffffffffffffffffffffffffffffffffff16908173ffffffffffffffffffffffffffffffffffffffff168152505060606000809054906101000a900473ffffffffffffffffffffffffffffffffffffffff1673ffffffffffffffffffffffffffffffffffffffff1663d06ca61f86856040518363ffffffff1660e01b81526004018083815260200180602001828103825283818151815260200191508051906020019060200280838360005b83811015610d29578082015181840152602081019050610d0e565b50505050905001935050505060006040518083038186803b158015610d4d57600080fd5b505afa158015610d61573d6000803e3d6000fd5b505050506040513d6000823e3d601f19601f820116820180604052506020811015610d8b57600080fd5b8101908080516040519392919084640100000000821115610dab57600080fd5b83820191506020820185811115610dc157600080fd5b8251866020820283011164010000000082111715610dde57600080fd5b8083526020830192505050908051906020019060200280838360005b83811015610e15578082015181840152602081019050610dfa565b50505050905001604052505050905060606000809054906101000a900473ffffffffffffffffffffffffffffffffffffffff1673ffffffffffffffffffffffffffffffffffffffff1663d06ca61f83600181518110610e7057fe5b6020026020010151856040518363ffffffff1660e01b81526004018083815260200180602001828103825283818151815260200191508051906020019060200280838360005b83811015610ed1578082015181840152602081019050610eb6565b50505050905001935050505060006040518083038186803b158015610ef557600080fd5b505afa158015610f09573d6000803e3d6000fd5b505050506040513d6000823e3d601f19601f820116820180604052506020811015610f3357600080fd5b8101908080516040519392919084640100000000821115610f5357600080fd5b83820191506020820185811115610f6957600080fd5b8251866020820283011164010000000082111715610f8657600080fd5b8083526020830192505050908051906020019060200280838360005b83811015610fbd578082015181840152602081019050610fa2565b50505050905001604052505050905080600181518110610fd957fe5b6020026020010151945050505050919050565b6000600160009054906101000a900473ffffffffffffffffffffffffffffffffffffffff169050600115158173ffffffffffffffffffffffffffffffffffffffff1663429b62e5336040518263ffffffff1660e01b8152600401808273ffffffffffffffffffffffffffffffffffffffff1673ffffffffffffffffffffffffffffffffffffffff168152602001915050602060405180830381600087803b15801561109657600080fd5b505af11580156110aa573d6000803e3d6000fd5b505050506040513d60208110156110c057600080fd5b81019080805190602001909291905050501515148061112c5750600260009054906101000a900473ffffffffffffffffffffffffffffffffffffffff1673ffffffffffffffffffffffffffffffffffffffff163373ffffffffffffffffffffffffffffffffffffffff16145b61119e576040517f08c379a000000000000000000000000000000000000000000000000000000000815260040180806020018281038252600b8152602001807f4e6f7420616c6c6f77656400000000000000000000000000000000000000000081525060200191505060405180910390fd5b60008173ffffffffffffffffffffffffffffffffffffffff166375f0a8746040518163ffffffff1660e01b8152600401602060405180830381600087803b1580156111e857600080fd5b505af11580156111fc573d6000803e3d6000fd5b505050506040513d602081101561121257600080fd5b8101908080519060200190929190505050905060008273ffffffffffffffffffffffffffffffffffffffff166370a08231836040518263ffffffff1660e01b8152600401808273ffffffffffffffffffffffffffffffffffffffff1673ffffffffffffffffffffffffffffffffffffffff16815260200191505060206040518083038186803b1580156112a457600080fd5b505afa1580156112b8573d6000803e3d6000fd5b505050506040513d60208110156112ce57600080fd5b81019080805190602001909291905050509050600081101561133b576040517f08c379a00000000000000000000000000000000000000000000000000000000081526004018080602001828103825260268152602001806138706026913960400191505060405180910390fd5b8273ffffffffffffffffffffffffffffffffffffffff16638037a57a826040518263ffffffff1660e01b815260040180828152602001915050600060405180830381600087803b15801561138e57600080fd5b505af11580156113a2573d6000803e3d6000fd5b505050508273ffffffffffffffffffffffffffffffffffffffff166323b872dd8330846040518463ffffffff1660e01b8152600401808473ffffffffffffffffffffffffffffffffffffffff1673ffffffffffffffffffffffffffffffffffffffff1681526020018373ffffffffffffffffffffffffffffffffffffffff1673ffffffffffffffffffffffffffffffffffffffff1681526020018281526020019350505050602060405180830381600087803b15801561146157600080fd5b505af1158015611475573d6000803e3d6000fd5b505050506040513d602081101561148b57600080fd5b8101908080519060200190929190505050506060600267ffffffffffffffff811180156114b757600080fd5b506040519080825280602002602001820160405280156114e65781602001602082028036833780820191505090505b509050600160009054906101000a900473ffffffffffffffffffffffffffffffffffffffff168160008151811061151957fe5b602002602001019073ffffffffffffffffffffffffffffffffffffffff16908173ffffffffffffffffffffffffffffffffffffffff1681525050600360009054906101000a900473ffffffffffffffffffffffffffffffffffffffff168160018151811061158357fe5b602002602001019073ffffffffffffffffffffffffffffffffffffffff16908173ffffffffffffffffffffffffffffffffffffffff16815250506000806115c9846119c1565b915091506115d8828487612d10565b5060006115f0600283816115e857fe5b048530612d10565b90508673ffffffffffffffffffffffffffffffffffffffff1663095ea7b36000809054906101000a900473ffffffffffffffffffffffffffffffffffffffff166002858161163a57fe5b046040518363ffffffff1660e01b8152600401808373ffffffffffffffffffffffffffffffffffffffff1673ffffffffffffffffffffffffffffffffffffffff16815260200182815260200192505050602060405180830381600087803b1580156116a457600080fd5b505af11580156116b8573d6000803e3d6000fd5b505050506040513d60208110156116ce57600080fd5b8101908080519060200190929190505050506000809054906101000a900473ffffffffffffffffffffffffffffffffffffffff1673ffffffffffffffffffffffffffffffffffffffff1663f305d719828660008151811061172b57fe5b60200260200101516002868161173d57fe5b04600086600260009054906101000a900473ffffffffffffffffffffffffffffffffffffffff16426040518863ffffffff1660e01b8152600401808773ffffffffffffffffffffffffffffffffffffffff1673ffffffffffffffffffffffffffffffffffffffff1681526020018681526020018581526020018481526020018373ffffffffffffffffffffffffffffffffffffffff1673ffffffffffffffffffffffffffffffffffffffff16815260200182815260200196505050505050506060604051808303818588803b15801561181557600080fd5b505af1158015611829573d6000803e3d6000fd5b50505050506040513d606081101561184057600080fd5b8101908080519060200190929190805190602001909291908051906020019092919050505050505050505050505050565b6000600560008373ffffffffffffffffffffffffffffffffffffffff1673ffffffffffffffffffffffffffffffffffffffff168152602001908152602001600020549050919050565b600260009054906101000a900473ffffffffffffffffffffffffffffffffffffffff1673ffffffffffffffffffffffffffffffffffffffff163373ffffffffffffffffffffffffffffffffffffffff161461197d576040517f08c379a000000000000000000000000000000000000000000000000000000000815260040180806020018281038252600a8152602001807f4f6e6c79206f776e65720000000000000000000000000000000000000000000081525060200191505060405180910390fd5b80600160006101000a81548173ffffffffffffffffffffffffffffffffffffffff021916908373ffffffffffffffffffffffffffffffffffffffff16021790555050565b6000806000600160009054906101000a900473ffffffffffffffffffffffffffffffffffffffff16905060648173ffffffffffffffffffffffffffffffffffffffff1663b97482dd6040518163ffffffff1660e01b8152600401602060405180830381600087803b158015611a3557600080fd5b505af1158015611a49573d6000803e3d6000fd5b505050506040513d6020811015611a5f57600080fd5b8101908080519060200190929190505050850281611a7957fe5b049150818403925050915091565b60056020528060005260406000206000915090505481565b600260009054906101000a900473ffffffffffffffffffffffffffffffffffffffff1673ffffffffffffffffffffffffffffffffffffffff163373ffffffffffffffffffffffffffffffffffffffff1614611b62576040517f08c379a000000000000000000000000000000000000000000000000000000000815260040180806020018281038252600a8152602001807f4f6e6c79206f776e65720000000000000000000000000000000000000000000081525060200191505060405180910390fd5b80600360006101000a81548173ffffffffffffffffffffffffffffffffffffffff021916908373ffffffffffffffffffffffffffffffffffffffff16021790555050565b600080600160009054906101000a900473ffffffffffffffffffffffffffffffffffffffff16905060008173ffffffffffffffffffffffffffffffffffffffff166370a082318373ffffffffffffffffffffffffffffffffffffffff1663fb75b2c76040518163ffffffff1660e01b8152600401602060405180830381600087803b158015611c3457600080fd5b505af1158015611c48573d6000803e3d6000fd5b505050506040513d6020811015611c5e57600080fd5b81019080805190602001909291905050506040518263ffffffff1660e01b8152600401808273ffffffffffffffffffffffffffffffffffffffff1673ffffffffffffffffffffffffffffffffffffffff16815260200191505060206040518083038186803b158015611ccf57600080fd5b505afa158015611ce3573d6000803e3d6000fd5b505050506040513d6020811015611cf957600080fd5b8101908080519060200190929190505050905060008273ffffffffffffffffffffffffffffffffffffffff166318160ddd6040518163ffffffff1660e01b815260040160206040518083038186803b158015611d5457600080fd5b505afa158015611d68573d6000803e3d6000fd5b505050506040513d6020811015611d7e57600080fd5b8101908080519060200190929190505050670de0b6b3a764000060648573ffffffffffffffffffffffffffffffffffffffff166370a08231896040518263ffffffff1660e01b8152600401808273ffffffffffffffffffffffffffffffffffffffff1673ffffffffffffffffffffffffffffffffffffffff16815260200191505060206040518083038186803b158015611e1757600080fd5b505afa158015611e2b573d6000803e3d6000fd5b505050506040513d6020811015611e4157600080fd5b8101908080519060200190929190505050020281611e5b57fe5b049050670de0b6b3a7640000606482840281611e7357fe5b0481611e7b57fe5b04935060008411611ef4576040517f08c379a00000000000000000000000000000000000000000000000000000000081526004018080602001828103825260168152602001807f4e6f7420656e6f7567682053515420726577617264730000000000000000000081525060200191505060405180910390fd5b505050919050565b600160009054906101000a900473ffffffffffffffffffffffffffffffffffffffff1673ffffffffffffffffffffffffffffffffffffffff168273ffffffffffffffffffffffffffffffffffffffff1614158015611fa85750600160009054906101000a900473ffffffffffffffffffffffffffffffffffffffff1673ffffffffffffffffffffffffffffffffffffffff168173ffffffffffffffffffffffffffffffffffffffff1614155b61201a576040517f08c379a00000000000000000000000000000000000000000000000000000000081526004018080602001828103825260108152602001807f4e6f20535154206173207265776172640000000000000000000000000000000081525060200191505060405180910390fd5b6000600560003373ffffffffffffffffffffffffffffffffffffffff1673ffffffffffffffffffffffffffffffffffffffff16815260200190815260200160002054905060008114156120b05742600560003373ffffffffffffffffffffffffffffffffffffffff1673ffffffffffffffffffffffffffffffffffffffff16815260200190815260200160002081905550612161565b6000603c824203816120be57fe5b049050600381101561211b576040517f08c379a000000000000000000000000000000000000000000000000000000000815260040180806020018281038252602281526020018061384e6022913960400191505060405180910390fd5b42600560003373ffffffffffffffffffffffffffffffffffffffff1673ffffffffffffffffffffffffffffffffffffffff16815260200190815260200160002081905550505b6000600160009054906101000a900473ffffffffffffffffffffffffffffffffffffffff16905060008173ffffffffffffffffffffffffffffffffffffffff166370a08231336040518263ffffffff1660e01b8152600401808273ffffffffffffffffffffffffffffffffffffffff1673ffffffffffffffffffffffffffffffffffffffff16815260200191505060206040518083038186803b15801561220757600080fd5b505afa15801561221b573d6000803e3d6000fd5b505050506040513d602081101561223157600080fd5b81019080805190602001909291905050509050600081116122ba576040517f08c379a000000000000000000000000000000000000000000000000000000000815260040180806020018281038252600e8152602001807f4e6f205351542062616c616e636500000000000000000000000000000000000081525060200191505060405180910390fd5b60008273ffffffffffffffffffffffffffffffffffffffff166370a082318473ffffffffffffffffffffffffffffffffffffffff1663fb75b2c76040518163ffffffff1660e01b8152600401602060405180830381600087803b15801561232057600080fd5b505af1158015612334573d6000803e3d6000fd5b505050506040513d602081101561234a57600080fd5b81019080805190602001909291905050506040518263ffffffff1660e01b8152600401808273ffffffffffffffffffffffffffffffffffffffff1673ffffffffffffffffffffffffffffffffffffffff16815260200191505060206040518083038186803b1580156123bb57600080fd5b505afa1580156123cf573d6000803e3d6000fd5b505050506040513d60208110156123e557600080fd5b810190808051906020019092919050505090506000811115612c0157600061240c33611ba6565b90506000612419826133d4565b905060006002828161242757fe5b0490506060600267ffffffffffffffff8111801561244457600080fd5b506040519080825280602002602001820160405280156124735781602001602082028036833780820191505090505b509050600360009054906101000a900473ffffffffffffffffffffffffffffffffffffffff16816000815181106124a657fe5b602002602001019073ffffffffffffffffffffffffffffffffffffffff16908173ffffffffffffffffffffffffffffffffffffffff168152505089816001815181106124ee57fe5b602002602001019073ffffffffffffffffffffffffffffffffffffffff16908173ffffffffffffffffffffffffffffffffffffffff16815250506060600267ffffffffffffffff8111801561254257600080fd5b506040519080825280602002602001820160405280156125715781602001602082028036833780820191505090505b509050600360009054906101000a900473ffffffffffffffffffffffffffffffffffffffff16816000815181106125a457fe5b602002602001019073ffffffffffffffffffffffffffffffffffffffff16908173ffffffffffffffffffffffffffffffffffffffff168152505089816001815181106125ec57fe5b602002602001019073ffffffffffffffffffffffffffffffffffffffff16908173ffffffffffffffffffffffffffffffffffffffff1681525050600360009054906101000a900473ffffffffffffffffffffffffffffffffffffffff1673ffffffffffffffffffffffffffffffffffffffff168b73ffffffffffffffffffffffffffffffffffffffff161480156126d05750600360009054906101000a900473ffffffffffffffffffffffffffffffffffffffff1673ffffffffffffffffffffffffffffffffffffffff168a73ffffffffffffffffffffffffffffffffffffffff16145b1561284257600360009054906101000a900473ffffffffffffffffffffffffffffffffffffffff1673ffffffffffffffffffffffffffffffffffffffff1663d0e30db0856040518263ffffffff1660e01b81526004016000604051808303818588803b15801561273f57600080fd5b505af1158015612753573d6000803e3d6000fd5b5050505050600360009054906101000a900473ffffffffffffffffffffffffffffffffffffffff1673ffffffffffffffffffffffffffffffffffffffff1663a9059cbb33866040518363ffffffff1660e01b8152600401808373ffffffffffffffffffffffffffffffffffffffff1673ffffffffffffffffffffffffffffffffffffffff16815260200182815260200192505050602060405180830381600087803b15801561280157600080fd5b505af1158015612815573d6000803e3d6000fd5b505050506040513d602081101561282b57600080fd5b810190808051906020019092919050505050612bfb565b600360009054906101000a900473ffffffffffffffffffffffffffffffffffffffff1673ffffffffffffffffffffffffffffffffffffffff168b73ffffffffffffffffffffffffffffffffffffffff161415612a1157600360009054906101000a900473ffffffffffffffffffffffffffffffffffffffff1673ffffffffffffffffffffffffffffffffffffffff1663d0e30db0846040518263ffffffff1660e01b81526004016000604051808303818588803b15801561290257600080fd5b505af1158015612916573d6000803e3d6000fd5b5050505050600360009054906101000a900473ffffffffffffffffffffffffffffffffffffffff1673ffffffffffffffffffffffffffffffffffffffff1663a9059cbb33856040518363ffffffff1660e01b8152600401808373ffffffffffffffffffffffffffffffffffffffff1673ffffffffffffffffffffffffffffffffffffffff16815260200182815260200192505050602060405180830381600087803b1580156129c457600080fd5b505af11580156129d8573d6000803e3d6000fd5b505050506040513d60208110156129ee57600080fd5b810190808051906020019092919050505050612a0b838233612d10565b50612bfa565b600360009054906101000a900473ffffffffffffffffffffffffffffffffffffffff1673ffffffffffffffffffffffffffffffffffffffff168a73ffffffffffffffffffffffffffffffffffffffff161415612be057600360009054906101000a900473ffffffffffffffffffffffffffffffffffffffff1673ffffffffffffffffffffffffffffffffffffffff1663d0e30db0846040518263ffffffff1660e01b81526004016000604051808303818588803b158015612ad157600080fd5b505af1158015612ae5573d6000803e3d6000fd5b5050505050600360009054906101000a900473ffffffffffffffffffffffffffffffffffffffff1673ffffffffffffffffffffffffffffffffffffffff1663a9059cbb33856040518363ffffffff1660e01b8152600401808373ffffffffffffffffffffffffffffffffffffffff1673ffffffffffffffffffffffffffffffffffffffff16815260200182815260200192505050602060405180830381600087803b158015612b9357600080fd5b505af1158015612ba7573d6000803e3d6000fd5b505050506040513d6020811015612bbd57600080fd5b810190808051906020019092919050505050612bda838333612d10565b50612bf9565b612beb838333612d10565b50612bf7838233612d10565b505b5b5b50505050505b505050505050565b600260009054906101000a900473ffffffffffffffffffffffffffffffffffffffff1673ffffffffffffffffffffffffffffffffffffffff163373ffffffffffffffffffffffffffffffffffffffff1614612ccc576040517f08c379a000000000000000000000000000000000000000000000000000000000815260040180806020018281038252600a8152602001807f4f6e6c79206f776e65720000000000000000000000000000000000000000000081525060200191505060405180910390fd5b80600260006101000a81548173ffffffffffffffffffffffffffffffffffffffff021916908373ffffffffffffffffffffffffffffffffffffffff16021790555050565b600060606000809054906101000a900473ffffffffffffffffffffffffffffffffffffffff1673ffffffffffffffffffffffffffffffffffffffff1663d06ca61f86866040518363ffffffff1660e01b81526004018083815260200180602001828103825283818151815260200191508051906020019060200280838360005b83811015612dab578082015181840152602081019050612d90565b50505050905001935050505060006040518083038186803b158015612dcf57600080fd5b505afa158015612de3573d6000803e3d6000fd5b505050506040513d6000823e3d601f19601f820116820180604052506020811015612e0d57600080fd5b8101908080516040519392919084640100000000821115612e2d57600080fd5b83820191506020820185811115612e4357600080fd5b8251866020820283011164010000000082111715612e6057600080fd5b8083526020830192505050908051906020019060200280838360005b83811015612e97578082015181840152602081019050612e7c565b50505050905001604052505050905080600181518110612eb357fe5b6020026020010151915083600081518110612eca57fe5b602002602001015173ffffffffffffffffffffffffffffffffffffffff1663095ea7b36000809054906101000a900473ffffffffffffffffffffffffffffffffffffffff16876040518363ffffffff1660e01b8152600401808373ffffffffffffffffffffffffffffffffffffffff1673ffffffffffffffffffffffffffffffffffffffff16815260200182815260200192505050602060405180830381600087803b158015612f7957600080fd5b505af1158015612f8d573d6000803e3d6000fd5b505050506040513d6020811015612fa357600080fd5b810190808051906020019092919050505050600360009054906101000a900473ffffffffffffffffffffffffffffffffffffffff1673ffffffffffffffffffffffffffffffffffffffff1684600181518110612ffb57fe5b602002602001015173ffffffffffffffffffffffffffffffffffffffff1614156131fb576000809054906101000a900473ffffffffffffffffffffffffffffffffffffffff1673ffffffffffffffffffffffffffffffffffffffff166318cbafe586848787426040518663ffffffff1660e01b815260040180868152602001858152602001806020018473ffffffffffffffffffffffffffffffffffffffff1673ffffffffffffffffffffffffffffffffffffffff168152602001838152602001828103825285818151815260200191508051906020019060200280838360005b838110156130f75780820151818401526020810190506130dc565b505050509050019650505050505050600060405180830381600087803b15801561312057600080fd5b505af1158015613134573d6000803e3d6000fd5b505050506040513d6000823e3d601f19601f82011682018060405250602081101561315e57600080fd5b810190808051604051939291908464010000000082111561317e57600080fd5b8382019150602082018581111561319457600080fd5b82518660208202830111640100000000821117156131b157600080fd5b8083526020830192505050908051906020019060200280838360005b838110156131e85780820151818401526020810190506131cd565b50505050905001604052505050506133cc565b6000809054906101000a900473ffffffffffffffffffffffffffffffffffffffff1673ffffffffffffffffffffffffffffffffffffffff16637ff36ab586848787426040518663ffffffff1660e01b815260040180858152602001806020018473ffffffffffffffffffffffffffffffffffffffff1673ffffffffffffffffffffffffffffffffffffffff168152602001838152602001828103825285818151815260200191508051906020019060200280838360005b838110156132cd5780820151818401526020810190506132b2565b50505050905001955050505050506000604051808303818588803b1580156132f457600080fd5b505af1158015613308573d6000803e3d6000fd5b50505050506040513d6000823e3d601f19601f82011682018060405250602081101561333357600080fd5b810190808051604051939291908464010000000082111561335357600080fd5b8382019150602082018581111561336957600080fd5b825186602082028301116401000000008211171561338657600080fd5b8083526020830192505050908051906020019060200280838360005b838110156133bd5780820151818401526020810190506133a2565b50505050905001604052505050505b509392505050565b600080600160009054906101000a900473ffffffffffffffffffffffffffffffffffffffff16905060008173ffffffffffffffffffffffffffffffffffffffff1663fb75b2c76040518163ffffffff1660e01b8152600401602060405180830381600087803b15801561344657600080fd5b505af115801561345a573d6000803e3d6000fd5b505050506040513d602081101561347057600080fd5b81019080805190602001909291905050509050838273ffffffffffffffffffffffffffffffffffffffff166370a08231836040518263ffffffff1660e01b8152600401808273ffffffffffffffffffffffffffffffffffffffff1673ffffffffffffffffffffffffffffffffffffffff16815260200191505060206040518083038186803b15801561350157600080fd5b505afa158015613515573d6000803e3d6000fd5b505050506040513d602081101561352b57600080fd5b81019080805190602001909291905050501015613593576040517f08c379a000000000000000000000000000000000000000000000000000000000815260040180806020018281038252602381526020018061382b6023913960400191505060405180910390fd5b8173ffffffffffffffffffffffffffffffffffffffff1663652b22ef856040518263ffffffff1660e01b815260040180828152602001915050600060405180830381600087803b1580156135e657600080fd5b505af11580156135fa573d6000803e3d6000fd5b505050508173ffffffffffffffffffffffffffffffffffffffff166323b872dd8230876040518463ffffffff1660e01b8152600401808473ffffffffffffffffffffffffffffffffffffffff1673ffffffffffffffffffffffffffffffffffffffff1681526020018373ffffffffffffffffffffffffffffffffffffffff1673ffffffffffffffffffffffffffffffffffffffff1681526020018281526020019350505050602060405180830381600087803b1580156136b957600080fd5b505af11580156136cd573d6000803e3d6000fd5b505050506040513d60208110156136e357600080fd5b8101908080519060200190929190505050506060600267ffffffffffffffff8111801561370f57600080fd5b5060405190808252806020026020018201604052801561373e5781602001602082028036833780820191505090505b509050600160009054906101000a900473ffffffffffffffffffffffffffffffffffffffff168160008151811061377157fe5b602002602001019073ffffffffffffffffffffffffffffffffffffffff16908173ffffffffffffffffffffffffffffffffffffffff1681525050600360009054906101000a900473ffffffffffffffffffffffffffffffffffffffff16816001815181106137db57fe5b602002602001019073ffffffffffffffffffffffffffffffffffffffff16908173ffffffffffffffffffffffffffffffffffffffff1681525050613820858230612d10565b935050505091905056fe4e6f7420656e6f7567682062616c616e636520696e207265776172642077616c6c6574596f752063616e206f6e6c7920636c61696d206f6e6365207065722033206d696e734e6f7420656e6f7567682062616c616e636520696e206d61726b6574696e672077616c6c6574a26469706673582212207699cf604aec3d733b0bd6ff63023deea789c1efd5ad3f37ac3037cacd2cc1b764736f6c63430006060033",
  "linkReferences": {},
  "deployedLinkReferences": {}
}