{
  "_format": "hh-sol-artifact-1",
  "contractName": "SQNK",
  "sourceName": "contracts/SQNK.sol",
  "abi": [
    {
      "inputs": [
        {
          "internalType": "address",
          "name": "_marketingAddress",
          "type": "address"
        },
        {
          "internalType": "address",
          "name": "_rewardAddress",
          "type": "address"
        }
      ],
      "stateMutability": "nonpayable",
      "type": "constructor"
    },
    {
      "anonymous": false,
      "inputs": [
        {
          "indexed": false,
          "internalType": "uint256",
          "name": "marketingFee",
          "type": "uint256"
        },
        {
          "indexed": false,
          "internalType": "uint256",
          "name": "LPFee",
          "type": "uint256"
        },
        {
          "indexed": false,
          "internalType": "uint256",
          "name": "rewardFee",
          "type": "uint256"
        },
        {
          "indexed": false,
          "internalType": "uint256",
          "name": "amount",
          "type": "uint256"
        }
      ],
      "name": "Amounts",
      "type": "event"
    },
    {
      "anonymous": false,
      "inputs": [
        {
          "indexed": true,
          "internalType": "address",
          "name": "owner",
          "type": "address"
        },
        {
          "indexed": true,
          "internalType": "address",
          "name": "spender",
          "type": "address"
        },
        {
          "indexed": false,
          "internalType": "uint256",
          "name": "value",
          "type": "uint256"
        }
      ],
      "name": "Approval",
      "type": "event"
    },
    {
      "anonymous": false,
      "inputs": [
        {
          "indexed": false,
          "internalType": "address",
          "name": "weth",
          "type": "address"
        },
        {
          "indexed": false,
          "internalType": "uint256",
          "name": "totalFee",
          "type": "uint256"
        }
      ],
      "name": "CheckSwap",
      "type": "event"
    },
    {
      "anonymous": false,
      "inputs": [
        {
          "indexed": false,
          "internalType": "string",
          "name": "message",
          "type": "string"
        }
      ],
      "name": "Log",
      "type": "event"
    },
    {
      "anonymous": false,
      "inputs": [
        {
          "indexed": false,
          "internalType": "bytes",
          "name": "data",
          "type": "bytes"
        }
      ],
      "name": "LogBytes",
      "type": "event"
    },
    {
      "anonymous": false,
      "inputs": [
        {
          "indexed": true,
          "internalType": "address",
          "name": "previousOwner",
          "type": "address"
        },
        {
          "indexed": true,
          "internalType": "address",
          "name": "newOwner",
          "type": "address"
        }
      ],
      "name": "OwnershipTransferred",
      "type": "event"
    },
    {
      "anonymous": false,
      "inputs": [
        {
          "indexed": false,
          "internalType": "address",
          "name": "sender",
          "type": "address"
        },
        {
          "indexed": false,
          "internalType": "address",
          "name": "recipient",
          "type": "address"
        },
        {
          "indexed": false,
          "internalType": "address",
          "name": "v3Pool",
          "type": "address"
        }
      ],
      "name": "SenderCheck",
      "type": "event"
    },
    {
      "anonymous": false,
      "inputs": [
        {
          "indexed": true,
          "internalType": "address",
          "name": "from",
          "type": "address"
        },
        {
          "indexed": true,
          "internalType": "address",
          "name": "to",
          "type": "address"
        },
        {
          "indexed": false,
          "internalType": "uint256",
          "name": "value",
          "type": "uint256"
        }
      ],
      "name": "Transfer",
      "type": "event"
    },
    {
      "inputs": [
        {
          "internalType": "address",
          "name": "holder",
          "type": "address"
        },
        {
          "internalType": "address",
          "name": "spender",
          "type": "address"
        }
      ],
      "name": "allowance",
      "outputs": [
        {
          "internalType": "uint256",
          "name": "",
          "type": "uint256"
        }
      ],
      "stateMutability": "view",
      "type": "function"
    },
    {
      "inputs": [
        {
          "internalType": "address",
          "name": "spender",
          "type": "address"
        },
        {
          "internalType": "uint256",
          "name": "amount",
          "type": "uint256"
        }
      ],
      "name": "approve",
      "outputs": [
        {
          "internalType": "bool",
          "name": "",
          "type": "bool"
        }
      ],
      "stateMutability": "nonpayable",
      "type": "function"
    },
    {
      "inputs": [
        {
          "internalType": "address",
          "name": "spender",
          "type": "address"
        }
      ],
      "name": "approveMax",
      "outputs": [
        {
          "internalType": "bool",
          "name": "",
          "type": "bool"
        }
      ],
      "stateMutability": "nonpayable",
      "type": "function"
    },
    {
      "inputs": [
        {
          "internalType": "address",
          "name": "account",
          "type": "address"
        }
      ],
      "name": "balanceOf",
      "outputs": [
        {
          "internalType": "uint256",
          "name": "",
          "type": "uint256"
        }
      ],
      "stateMutability": "view",
      "type": "function"
    },
    {
      "inputs": [],
      "name": "decimals",
      "outputs": [
        {
          "internalType": "uint8",
          "name": "",
          "type": "uint8"
        }
      ],
      "stateMutability": "pure",
      "type": "function"
    },
    {
      "inputs": [],
      "name": "enableTrading",
      "outputs": [
        {
          "internalType": "bool",
          "name": "",
          "type": "bool"
        }
      ],
      "stateMutability": "view",
      "type": "function"
    },
    {
      "inputs": [],
      "name": "getTaxes",
      "outputs": [
        {
          "internalType": "uint256",
          "name": "",
          "type": "uint256"
        },
        {
          "internalType": "uint256",
          "name": "",
          "type": "uint256"
        },
        {
          "internalType": "uint256",
          "name": "",
          "type": "uint256"
        },
        {
          "internalType": "uint256",
          "name": "",
          "type": "uint256"
        },
        {
          "internalType": "uint256",
          "name": "",
          "type": "uint256"
        },
        {
          "internalType": "uint256",
          "name": "",
          "type": "uint256"
        },
        {
          "internalType": "uint256",
          "name": "",
          "type": "uint256"
        },
        {
          "internalType": "uint256",
          "name": "",
          "type": "uint256"
        }
      ],
      "stateMutability": "view",
      "type": "function"
    },
    {
      "inputs": [
        {
          "internalType": "address",
          "name": "",
          "type": "address"
        }
      ],
      "name": "isExcludedFromFee",
      "outputs": [
        {
          "internalType": "bool",
          "name": "",
          "type": "bool"
        }
      ],
      "stateMutability": "view",
      "type": "function"
    },
    {
      "inputs": [
        {
          "internalType": "address",
          "name": "",
          "type": "address"
        }
      ],
      "name": "isExcludedFromMaxTx",
      "outputs": [
        {
          "internalType": "bool",
          "name": "",
          "type": "bool"
        }
      ],
      "stateMutability": "view",
      "type": "function"
    },
    {
      "inputs": [
        {
          "internalType": "address",
          "name": "",
          "type": "address"
        }
      ],
      "name": "isExcludedFromMaxWallet",
      "outputs": [
        {
          "internalType": "bool",
          "name": "",
          "type": "bool"
        }
      ],
      "stateMutability": "view",
      "type": "function"
    },
    {
      "inputs": [],
      "name": "marketingAddress",
      "outputs": [
        {
          "internalType": "address",
          "name": "",
          "type": "address"
        }
      ],
      "stateMutability": "view",
      "type": "function"
    },
    {
      "inputs": [],
      "name": "maxTxAmount",
      "outputs": [
        {
          "internalType": "uint256",
          "name": "",
          "type": "uint256"
        }
      ],
      "stateMutability": "view",
      "type": "function"
    },
    {
      "inputs": [],
      "name": "maxWalletAmount",
      "outputs": [
        {
          "internalType": "uint256",
          "name": "",
          "type": "uint256"
        }
      ],
      "stateMutability": "view",
      "type": "function"
    },
    {
      "inputs": [],
      "name": "name",
      "outputs": [
        {
          "internalType": "string",
          "name": "",
          "type": "string"
        }
      ],
      "stateMutability": "pure",
      "type": "function"
    },
    {
      "inputs": [],
      "name": "owner",
      "outputs": [
        {
          "internalType": "address",
          "name": "",
          "type": "address"
        }
      ],
      "stateMutability": "view",
      "type": "function"
    },
    {
      "inputs": [],
      "name": "renounceOwnership",
      "outputs": [],
      "stateMutability": "nonpayable",
      "type": "function"
    },
    {
      "inputs": [],
      "name": "rewardAddress",
      "outputs": [
        {
          "internalType": "address",
          "name": "",
          "type": "address"
        }
      ],
      "stateMutability": "view",
      "type": "function"
    },
    {
      "inputs": [
        {
          "internalType": "uint256",
          "name": "_buyLiquidityTax",
          "type": "uint256"
        }
      ],
      "name": "setBuyLiquidityTax",
      "outputs": [],
      "stateMutability": "nonpayable",
      "type": "function"
    },
    {
      "inputs": [
        {
          "internalType": "uint256",
          "name": "_buyMarketingTax",
          "type": "uint256"
        }
      ],
      "name": "setBuyMarketingTax",
      "outputs": [],
      "stateMutability": "nonpayable",
      "type": "function"
    },
    {
      "inputs": [
        {
          "internalType": "uint256",
          "name": "_buyRewardTax",
          "type": "uint256"
        }
      ],
      "name": "setBuyRewardTax",
      "outputs": [],
      "stateMutability": "nonpayable",
      "type": "function"
    },
    {
      "inputs": [
        {
          "internalType": "uint256",
          "name": "_buyTax",
          "type": "uint256"
        }
      ],
      "name": "setBuyTax",
      "outputs": [],
      "stateMutability": "nonpayable",
      "type": "function"
    },
    {
      "inputs": [
        {
          "internalType": "bool",
          "name": "_enabled",
          "type": "bool"
        }
      ],
      "name": "setEnableTrading",
      "outputs": [],
      "stateMutability": "nonpayable",
      "type": "function"
    },
    {
      "inputs": [
        {
          "internalType": "address",
          "name": "_marketingAddress",
          "type": "address"
        }
      ],
      "name": "setMarketingAddress",
      "outputs": [],
      "stateMutability": "nonpayable",
      "type": "function"
    },
    {
      "inputs": [
        {
          "internalType": "address",
          "name": "_rewardAddress",
          "type": "address"
        }
      ],
      "name": "setRewardAddress",
      "outputs": [],
      "stateMutability": "nonpayable",
      "type": "function"
    },
    {
      "inputs": [
        {
          "internalType": "uint256",
          "name": "_sellLiquidityTax",
          "type": "uint256"
        }
      ],
      "name": "setSellLiquidityTax",
      "outputs": [],
      "stateMutability": "nonpayable",
      "type": "function"
    },
    {
      "inputs": [
        {
          "internalType": "uint256",
          "name": "_sellMarketingTax",
          "type": "uint256"
        }
      ],
      "name": "setSellMarketingTax",
      "outputs": [],
      "stateMutability": "nonpayable",
      "type": "function"
    },
    {
      "inputs": [
        {
          "internalType": "uint256",
          "name": "_sellRewardTax",
          "type": "uint256"
        }
      ],
      "name": "setSellRewardTax",
      "outputs": [],
      "stateMutability": "nonpayable",
      "type": "function"
    },
    {
      "inputs": [
        {
          "internalType": "uint256",
          "name": "_sellTax",
          "type": "uint256"
        }
      ],
      "name": "setSellTax",
      "outputs": [],
      "stateMutability": "nonpayable",
      "type": "function"
    },
    {
      "inputs": [
        {
          "internalType": "address",
          "name": "_sqnetAddress",
          "type": "address"
        }
      ],
      "name": "setSqnetAddress",
      "outputs": [],
      "stateMutability": "nonpayable",
      "type": "function"
    },
    {
      "inputs": [
        {
          "internalType": "address",
          "name": "_tokenPair",
          "type": "address"
        }
      ],
      "name": "setTokenPair",
      "outputs": [],
      "stateMutability": "nonpayable",
      "type": "function"
    },
    {
      "inputs": [],
      "name": "sqnetAddress",
      "outputs": [
        {
          "internalType": "address",
          "name": "",
          "type": "address"
        }
      ],
      "stateMutability": "view",
      "type": "function"
    },
    {
      "inputs": [],
      "name": "symbol",
      "outputs": [
        {
          "internalType": "string",
          "name": "",
          "type": "string"
        }
      ],
      "stateMutability": "pure",
      "type": "function"
    },
    {
      "inputs": [],
      "name": "tokenPair",
      "outputs": [
        {
          "internalType": "address",
          "name": "",
          "type": "address"
        }
      ],
      "stateMutability": "view",
      "type": "function"
    },
    {
      "inputs": [],
      "name": "totalSupply",
      "outputs": [
        {
          "internalType": "uint256",
          "name": "",
          "type": "uint256"
        }
      ],
      "stateMutability": "pure",
      "type": "function"
    },
    {
      "inputs": [
        {
          "internalType": "address",
          "name": "recipient",
          "type": "address"
        },
        {
          "internalType": "uint256",
          "name": "amount",
          "type": "uint256"
        }
      ],
      "name": "transfer",
      "outputs": [
        {
          "internalType": "bool",
          "name": "",
          "type": "bool"
        }
      ],
      "stateMutability": "nonpayable",
      "type": "function"
    },
    {
      "inputs": [
        {
          "internalType": "address",
          "name": "sender",
          "type": "address"
        },
        {
          "internalType": "address",
          "name": "recipient",
          "type": "address"
        },
        {
          "internalType": "uint256",
          "name": "amount",
          "type": "uint256"
        }
      ],
      "name": "transferFrom",
      "outputs": [
        {
          "internalType": "bool",
          "name": "",
          "type": "bool"
        }
      ],
      "stateMutability": "nonpayable",
      "type": "function"
    },
    {
      "inputs": [
        {
          "internalType": "address",
          "name": "newOwner",
          "type": "address"
        }
      ],
      "name": "transferOwnership",
      "outputs": [],
      "stateMutability": "nonpayable",
      "type": "function"
    },
    {
      "inputs": [],
      "name": "withdraw",
      "outputs": [],
      "stateMutability": "nonpayable",
      "type": "function"
    },
    {
      "stateMutability": "payable",
      "type": "receive"
    }
  ],
  "bytecode": "0x60806040526012600a62000014919062000bcc565b64174876e80062000026919062000c1d565b6001556012600a62000039919062000bcc565b64174876e8006200004b919062000c1d565b600255600a6005556006805560046007556000600855600e600955600a80556002600b556002600c553480156200008157600080fd5b5060405162004462380380620044628339818101604052810190620000a7919062000ce8565b620000b8336200094560201b60201c565b81601060016101000a81548173ffffffffffffffffffffffffffffffffffffffff021916908373ffffffffffffffffffffffffffffffffffffffff16021790555080601160006101000a81548173ffffffffffffffffffffffffffffffffffffffff021916908373ffffffffffffffffffffffffffffffffffffffff1602179055506001600d60006200015062000a0960201b60201c565b73ffffffffffffffffffffffffffffffffffffffff1673ffffffffffffffffffffffffffffffffffffffff16815260200190815260200160002060006101000a81548160ff0219169083151502179055506001600d6000601060019054906101000a900473ffffffffffffffffffffffffffffffffffffffff1673ffffffffffffffffffffffffffffffffffffffff1673ffffffffffffffffffffffffffffffffffffffff16815260200190815260200160002060006101000a81548160ff0219169083151502179055506001600d6000601160009054906101000a900473ffffffffffffffffffffffffffffffffffffffff1673ffffffffffffffffffffffffffffffffffffffff1673ffffffffffffffffffffffffffffffffffffffff16815260200190815260200160002060006101000a81548160ff0219169083151502179055506001600d60003073ffffffffffffffffffffffffffffffffffffffff1673ffffffffffffffffffffffffffffffffffffffff16815260200190815260200160002060006101000a81548160ff0219169083151502179055506001600d60008073ffffffffffffffffffffffffffffffffffffffff1673ffffffffffffffffffffffffffffffffffffffff16815260200190815260200160002060006101000a81548160ff0219169083151502179055506001600e60006200035b62000a0960201b60201c565b73ffffffffffffffffffffffffffffffffffffffff1673ffffffffffffffffffffffffffffffffffffffff16815260200190815260200160002060006101000a81548160ff0219169083151502179055506001600e6000601060019054906101000a900473ffffffffffffffffffffffffffffffffffffffff1673ffffffffffffffffffffffffffffffffffffffff1673ffffffffffffffffffffffffffffffffffffffff16815260200190815260200160002060006101000a81548160ff0219169083151502179055506001600e6000601160009054906101000a900473ffffffffffffffffffffffffffffffffffffffff1673ffffffffffffffffffffffffffffffffffffffff1673ffffffffffffffffffffffffffffffffffffffff16815260200190815260200160002060006101000a81548160ff0219169083151502179055506001600e60003073ffffffffffffffffffffffffffffffffffffffff1673ffffffffffffffffffffffffffffffffffffffff16815260200190815260200160002060006101000a81548160ff0219169083151502179055506001600e60008073ffffffffffffffffffffffffffffffffffffffff1673ffffffffffffffffffffffffffffffffffffffff16815260200190815260200160002060006101000a81548160ff0219169083151502179055506001600e6000601360009054906101000a900473ffffffffffffffffffffffffffffffffffffffff1673ffffffffffffffffffffffffffffffffffffffff1673ffffffffffffffffffffffffffffffffffffffff16815260200190815260200160002060006101000a81548160ff0219169083151502179055506001600f6000620005e062000a0960201b60201c565b73ffffffffffffffffffffffffffffffffffffffff1673ffffffffffffffffffffffffffffffffffffffff16815260200190815260200160002060006101000a81548160ff0219169083151502179055506001600f6000601060019054906101000a900473ffffffffffffffffffffffffffffffffffffffff1673ffffffffffffffffffffffffffffffffffffffff1673ffffffffffffffffffffffffffffffffffffffff16815260200190815260200160002060006101000a81548160ff0219169083151502179055506001600f6000601160009054906101000a900473ffffffffffffffffffffffffffffffffffffffff1673ffffffffffffffffffffffffffffffffffffffff1673ffffffffffffffffffffffffffffffffffffffff16815260200190815260200160002060006101000a81548160ff0219169083151502179055506001600f60003073ffffffffffffffffffffffffffffffffffffffff1673ffffffffffffffffffffffffffffffffffffffff16815260200190815260200160002060006101000a81548160ff0219169083151502179055506001600f60008073ffffffffffffffffffffffffffffffffffffffff1673ffffffffffffffffffffffffffffffffffffffff16815260200190815260200160002060006101000a81548160ff0219169083151502179055506001600f6000601360009054906101000a900473ffffffffffffffffffffffffffffffffffffffff1673ffffffffffffffffffffffffffffffffffffffff1673ffffffffffffffffffffffffffffffffffffffff16815260200190815260200160002060006101000a81548160ff0219169083151502179055506012600a6200085f919062000bcc565b64174876e80062000871919062000c1d565b600360003373ffffffffffffffffffffffffffffffffffffffff1673ffffffffffffffffffffffffffffffffffffffff168152602001908152602001600020819055503373ffffffffffffffffffffffffffffffffffffffff16600073ffffffffffffffffffffffffffffffffffffffff167fddf252ad1be2c89b69c2b068fc378daa952ba7f163c4a11628f55a4df523b3ef6012600a62000914919062000bcc565b64174876e80062000926919062000c1d565b60405162000935919062000d40565b60405180910390a3505062000d5d565b60008060009054906101000a900473ffffffffffffffffffffffffffffffffffffffff169050816000806101000a81548173ffffffffffffffffffffffffffffffffffffffff021916908373ffffffffffffffffffffffffffffffffffffffff1602179055508173ffffffffffffffffffffffffffffffffffffffff168173ffffffffffffffffffffffffffffffffffffffff167f8be0079c531659141344cd1fd0a4f28419497f9722a3daafe3b4186f6b6457e060405160405180910390a35050565b60008060009054906101000a900473ffffffffffffffffffffffffffffffffffffffff16905090565b7f4e487b7100000000000000000000000000000000000000000000000000000000600052601160045260246000fd5b60008160011c9050919050565b6000808291508390505b600185111562000ac05780860481111562000a985762000a9762000a32565b5b600185161562000aa85780820291505b808102905062000ab88562000a61565b945062000a78565b94509492505050565b60008262000adb576001905062000bae565b8162000aeb576000905062000bae565b816001811462000b04576002811462000b0f5762000b45565b600191505062000bae565b60ff84111562000b245762000b2362000a32565b5b8360020a91508482111562000b3e5762000b3d62000a32565b5b5062000bae565b5060208310610133831016604e8410600b841016171562000b7f5782820a90508381111562000b795762000b7862000a32565b5b62000bae565b62000b8e848484600162000a6e565b9250905081840481111562000ba85762000ba762000a32565b5b81810290505b9392505050565b6000819050919050565b600060ff82169050919050565b600062000bd98262000bb5565b915062000be68362000bbf565b925062000c157fffffffffffffffffffffffffffffffffffffffffffffffffffffffffffffffff848462000ac9565b905092915050565b600062000c2a8262000bb5565b915062000c378362000bb5565b9250817fffffffffffffffffffffffffffffffffffffffffffffffffffffffffffffffff048311821515161562000c735762000c7262000a32565b5b828202905092915050565b600080fd5b600073ffffffffffffffffffffffffffffffffffffffff82169050919050565b600062000cb08262000c83565b9050919050565b62000cc28162000ca3565b811462000cce57600080fd5b50565b60008151905062000ce28162000cb7565b92915050565b6000806040838503121562000d025762000d0162000c7e565b5b600062000d128582860162000cd1565b925050602062000d258582860162000cd1565b9150509250929050565b62000d3a8162000bb5565b82525050565b600060208201905062000d57600083018462000d2f565b92915050565b6136f58062000d6d6000396000f3fe6080604052600436106102295760003560e01c80638c0b5e2211610123578063aa4bde28116100ab578063dc1052e21161006f578063dc1052e214610819578063dd62ed3e14610842578063ee16c1601461087f578063f2fde38b146108aa578063fa852213146108d357610230565b8063aa4bde281461074a578063ab07825b14610775578063b64a9a5f1461079e578063b92ebd5f146107c7578063d0c3df0f146107f057610230565b8063906e9dd0116100f2578063906e9dd01461066557806395d89b411461068e578063965abd7d146106b9578063a5ece941146106e2578063a9059cbb1461070d57610230565b80638c0b5e22146105bb5780638cd09d50146105e65780638cf57cb91461060f5780638da5cb5b1461063a57610230565b80633ccfd60b116101b1578063658c27a911610175578063658c27a9146104c25780636dd3d39f146104ff57806370a082311461053c578063715018a6146105795780638a8c523c1461059057610230565b80633ccfd60b146103df5780634263ec33146103f65780635342acb41461041f578063571ac8b01461045c5780635e00e6791461049957610230565b806321e35933116101f857806321e35933146102f157806323b872dd1461031a5780632687beab146103575780632973ef2d14610382578063313ce567146103b457610230565b806306fdde0314610235578063095ea7b31461026057806318160ddd1461029d5780631d60c2b0146102c857610230565b3661023057005b600080fd5b34801561024157600080fd5b5061024a6108fc565b604051610257919061264c565b60405180910390f35b34801561026c57600080fd5b5061028760048036038101906102829190612707565b610939565b6040516102949190612762565b60405180910390f35b3480156102a957600080fd5b506102b2610a2b565b6040516102bf919061278c565b60405180910390f35b3480156102d457600080fd5b506102ef60048036038101906102ea91906127a7565b610a50565b005b3480156102fd57600080fd5b50610318600480360381019061031391906127a7565b610aa7565b005b34801561032657600080fd5b50610341600480360381019061033c91906127d4565b610afe565b60405161034e9190612762565b60405180910390f35b34801561036357600080fd5b5061036c610cfb565b6040516103799190612836565b60405180910390f35b34801561038e57600080fd5b50610397610d21565b6040516103ab989796959493929190612851565b60405180910390f35b3480156103c057600080fd5b506103c9610d5f565b6040516103d691906128eb565b60405180910390f35b3480156103eb57600080fd5b506103f4610d68565b005b34801561040257600080fd5b5061041d600480360381019061041891906127a7565b610dbf565b005b34801561042b57600080fd5b5061044660048036038101906104419190612906565b610e16565b6040516104539190612762565b60405180910390f35b34801561046857600080fd5b50610483600480360381019061047e9190612906565b610e36565b6040516104909190612762565b60405180910390f35b3480156104a557600080fd5b506104c060048036038101906104bb9190612906565b610e66565b005b3480156104ce57600080fd5b506104e960048036038101906104e49190612906565b610f22565b6040516104f69190612762565b60405180910390f35b34801561050b57600080fd5b5061052660048036038101906105219190612906565b610f42565b6040516105339190612762565b60405180910390f35b34801561054857600080fd5b50610563600480360381019061055e9190612906565b610f62565b604051610570919061278c565b60405180910390f35b34801561058557600080fd5b5061058e610fab565b005b34801561059c57600080fd5b506105a5610fbf565b6040516105b29190612762565b60405180910390f35b3480156105c757600080fd5b506105d0610fd2565b6040516105dd919061278c565b60405180910390f35b3480156105f257600080fd5b5061060d600480360381019061060891906127a7565b610fd8565b005b34801561061b57600080fd5b5061062461102e565b6040516106319190612836565b60405180910390f35b34801561064657600080fd5b5061064f611054565b60405161065c9190612836565b60405180910390f35b34801561067157600080fd5b5061068c60048036038101906106879190612906565b61107d565b005b34801561069a57600080fd5b506106a3611139565b6040516106b0919061264c565b60405180910390f35b3480156106c557600080fd5b506106e060048036038101906106db9190612906565b611176565b005b3480156106ee57600080fd5b506106f7611232565b6040516107049190612836565b60405180910390f35b34801561071957600080fd5b50610734600480360381019061072f9190612707565b611258565b6040516107419190612762565b60405180910390f35b34801561075657600080fd5b5061075f61126d565b60405161076c919061278c565b60405180910390f35b34801561078157600080fd5b5061079c600480360381019061079791906127a7565b611273565b005b3480156107aa57600080fd5b506107c560048036038101906107c091906127a7565b6112ca565b005b3480156107d357600080fd5b506107ee60048036038101906107e9919061295f565b611321565b005b3480156107fc57600080fd5b5061081760048036038101906108129190612906565b611346565b005b34801561082557600080fd5b50610840600480360381019061083b91906127a7565b611402565b005b34801561084e57600080fd5b506108696004803603810190610864919061298c565b611458565b604051610876919061278c565b60405180910390f35b34801561088b57600080fd5b506108946114df565b6040516108a19190612836565b60405180910390f35b3480156108b657600080fd5b506108d160048036038101906108cc9190612906565b611505565b005b3480156108df57600080fd5b506108fa60048036038101906108f591906127a7565b611589565b005b60606040518060400160405280600d81526020017f5371756964204e6574776f726b00000000000000000000000000000000000000815250905090565b600081600460003373ffffffffffffffffffffffffffffffffffffffff1673ffffffffffffffffffffffffffffffffffffffff16815260200190815260200160002060008573ffffffffffffffffffffffffffffffffffffffff1673ffffffffffffffffffffffffffffffffffffffff168152602001908152602001600020819055508273ffffffffffffffffffffffffffffffffffffffff163373ffffffffffffffffffffffffffffffffffffffff167f8c5be1e5ebec7d5bd14f71427d1e84f3dd0314c0f7b2291e5b200ac8c7c3b92584604051610a19919061278c565b60405180910390a36001905092915050565b60006012600a610a3b9190612b2e565b64174876e800610a4b9190612b79565b905090565b610a586115e0565b600954811115610a9d576040517f08c379a0000000000000000000000000000000000000000000000000000000008152600401610a9490612c45565b60405180910390fd5b80600c8190555050565b610aaf6115e0565b600554811115610af4576040517f08c379a0000000000000000000000000000000000000000000000000000000008152600401610aeb90612cd7565b60405180910390fd5b8060078190555050565b60006012600a610b0e9190612b2e565b64174876e800610b1e9190612b79565b600460008673ffffffffffffffffffffffffffffffffffffffff1673ffffffffffffffffffffffffffffffffffffffff16815260200190815260200160002060003373ffffffffffffffffffffffffffffffffffffffff1673ffffffffffffffffffffffffffffffffffffffff1681526020019081526020016000205414610ce757610c66826040518060400160405280601681526020017f496e73756666696369656e7420416c6c6f77616e636500000000000000000000815250600460008873ffffffffffffffffffffffffffffffffffffffff1673ffffffffffffffffffffffffffffffffffffffff16815260200190815260200160002060003373ffffffffffffffffffffffffffffffffffffffff1673ffffffffffffffffffffffffffffffffffffffff168152602001908152602001600020546116579092919063ffffffff16565b600460008673ffffffffffffffffffffffffffffffffffffffff1673ffffffffffffffffffffffffffffffffffffffff16815260200190815260200160002060003373ffffffffffffffffffffffffffffffffffffffff1673ffffffffffffffffffffffffffffffffffffffff168152602001908152602001600020819055505b610cf28484846116ac565b90509392505050565b601260009054906101000a900473ffffffffffffffffffffffffffffffffffffffff1681565b600080600080600080600080600554600654600754600854600954600a54600b54600c54975097509750975097509750975097509091929394959697565b60006012905090565b610d706115e0565b60004790503373ffffffffffffffffffffffffffffffffffffffff166108fc829081150290604051600060405180830381858888f19350505050158015610dbb573d6000803e3d6000fd5b5050565b610dc76115e0565b600554811115610e0c576040517f08c379a0000000000000000000000000000000000000000000000000000000008152600401610e0390612d69565b60405180910390fd5b8060088190555050565b600d6020528060005260406000206000915054906101000a900460ff1681565b6000610e5f826012600a610e4a9190612b2e565b64174876e800610e5a9190612b79565b610939565b9050919050565b610e6e6115e0565b600073ffffffffffffffffffffffffffffffffffffffff168173ffffffffffffffffffffffffffffffffffffffff161415610ede576040517f08c379a0000000000000000000000000000000000000000000000000000000008152600401610ed590612dfb565b60405180910390fd5b80601160006101000a81548173ffffffffffffffffffffffffffffffffffffffff021916908373ffffffffffffffffffffffffffffffffffffffff16021790555050565b600e6020528060005260406000206000915054906101000a900460ff1681565b600f6020528060005260406000206000915054906101000a900460ff1681565b6000600360008373ffffffffffffffffffffffffffffffffffffffff1673ffffffffffffffffffffffffffffffffffffffff168152602001908152602001600020549050919050565b610fb36115e0565b610fbd6000611d96565b565b601060009054906101000a900460ff1681565b60015481565b610fe06115e0565b6019811115611024576040517f08c379a000000000000000000000000000000000000000000000000000000000815260040161101b90612e67565b60405180910390fd5b8060098190555050565b601160009054906101000a900473ffffffffffffffffffffffffffffffffffffffff1681565b60008060009054906101000a900473ffffffffffffffffffffffffffffffffffffffff16905090565b6110856115e0565b600073ffffffffffffffffffffffffffffffffffffffff168173ffffffffffffffffffffffffffffffffffffffff1614156110f5576040517f08c379a00000000000000000000000000000000000000000000000000000000081526004016110ec90612ef9565b60405180910390fd5b80601060016101000a81548173ffffffffffffffffffffffffffffffffffffffff021916908373ffffffffffffffffffffffffffffffffffffffff16021790555050565b60606040518060400160405280600581526020017f53514e4b31000000000000000000000000000000000000000000000000000000815250905090565b61117e6115e0565b600073ffffffffffffffffffffffffffffffffffffffff168173ffffffffffffffffffffffffffffffffffffffff1614156111ee576040517f08c379a00000000000000000000000000000000000000000000000000000000081526004016111e590612f8b565b60405180910390fd5b80601260006101000a81548173ffffffffffffffffffffffffffffffffffffffff021916908373ffffffffffffffffffffffffffffffffffffffff16021790555050565b601060019054906101000a900473ffffffffffffffffffffffffffffffffffffffff1681565b60006112653384846116ac565b905092915050565b60025481565b61127b6115e0565b6005548111156112c0576040517f08c379a00000000000000000000000000000000000000000000000000000000081526004016112b79061301d565b60405180910390fd5b8060068190555050565b6112d26115e0565b600954811115611317576040517f08c379a000000000000000000000000000000000000000000000000000000000815260040161130e906130af565b60405180910390fd5b80600a8190555050565b6113296115e0565b80601060006101000a81548160ff02191690831515021790555050565b61134e6115e0565b600073ffffffffffffffffffffffffffffffffffffffff168173ffffffffffffffffffffffffffffffffffffffff1614156113be576040517f08c379a00000000000000000000000000000000000000000000000000000000081526004016113b590613141565b60405180910390fd5b80601360006101000a81548173ffffffffffffffffffffffffffffffffffffffff021916908373ffffffffffffffffffffffffffffffffffffffff16021790555050565b61140a6115e0565b601981111561144e576040517f08c379a0000000000000000000000000000000000000000000000000000000008152600401611445906131ad565b60405180910390fd5b8060058190555050565b6000600460008473ffffffffffffffffffffffffffffffffffffffff1673ffffffffffffffffffffffffffffffffffffffff16815260200190815260200160002060008373ffffffffffffffffffffffffffffffffffffffff1673ffffffffffffffffffffffffffffffffffffffff16815260200190815260200160002054905092915050565b601360009054906101000a900473ffffffffffffffffffffffffffffffffffffffff1681565b61150d6115e0565b600073ffffffffffffffffffffffffffffffffffffffff168173ffffffffffffffffffffffffffffffffffffffff16141561157d576040517f08c379a00000000000000000000000000000000000000000000000000000000081526004016115749061323f565b60405180910390fd5b61158681611d96565b50565b6115916115e0565b6009548111156115d6576040517f08c379a00000000000000000000000000000000000000000000000000000000081526004016115cd906132d1565b60405180910390fd5b80600b8190555050565b3373ffffffffffffffffffffffffffffffffffffffff166115ff611054565b73ffffffffffffffffffffffffffffffffffffffff1614611655576040517f08c379a000000000000000000000000000000000000000000000000000000000815260040161164c9061333d565b60405180910390fd5b565b600083831115829061169f576040517f08c379a0000000000000000000000000000000000000000000000000000000008152600401611696919061264c565b60405180910390fd5b5082840390509392505050565b6000601060009054906101000a900460ff166116fd576040517f08c379a00000000000000000000000000000000000000000000000000000000081526004016116f4906133a9565b60405180910390fd5b60001515600e60008673ffffffffffffffffffffffffffffffffffffffff1673ffffffffffffffffffffffffffffffffffffffff16815260200190815260200160002060009054906101000a900460ff1615151480156117ad575060001515600e60008573ffffffffffffffffffffffffffffffffffffffff1673ffffffffffffffffffffffffffffffffffffffff16815260200190815260200160002060009054906101000a900460ff161515145b156117f8576001548211156117f7576040517f08c379a00000000000000000000000000000000000000000000000000000000081526004016117ee9061343b565b60405180910390fd5b5b60001515600f60008673ffffffffffffffffffffffffffffffffffffffff1673ffffffffffffffffffffffffffffffffffffffff16815260200190815260200160002060009054906101000a900460ff1615151480156118a8575060001515600f60008573ffffffffffffffffffffffffffffffffffffffff1673ffffffffffffffffffffffffffffffffffffffff16815260200190815260200160002060009054906101000a900460ff161515145b1561190d576002546118cb836118bd86610f62565b611e5a90919063ffffffff16565b111561190c576040517f08c379a0000000000000000000000000000000000000000000000000000000008152600401611903906134cd565b60405180910390fd5b5b600d60008573ffffffffffffffffffffffffffffffffffffffff1673ffffffffffffffffffffffffffffffffffffffff16815260200190815260200160002060009054906101000a900460ff16806119ae5750600d60008473ffffffffffffffffffffffffffffffffffffffff1673ffffffffffffffffffffffffffffffffffffffff16815260200190815260200160002060009054906101000a900460ff165b156119c3576119be848484611e70565b611d8b565b6000600360008673ffffffffffffffffffffffffffffffffffffffff1673ffffffffffffffffffffffffffffffffffffffff16815260200190815260200160002054905082811015611a4a576040517f08c379a0000000000000000000000000000000000000000000000000000000008152600401611a4190613539565b60405180910390fd5b611a5d838261208c90919063ffffffff16565b600360008773ffffffffffffffffffffffffffffffffffffffff1673ffffffffffffffffffffffffffffffffffffffff168152602001908152602001600020819055506000806000806000601360009054906101000a900473ffffffffffffffffffffffffffffffffffffffff1673ffffffffffffffffffffffffffffffffffffffff168a73ffffffffffffffffffffffffffffffffffffffff161415611b745760055493506008549250600754915060065490507f6c133614d398aee3b1f20be73bbca8de6eef47a73120de320ca6eaf5ad20e8678a8a601360009054906101000a900473ffffffffffffffffffffffffffffffffffffffff16604051611b6793929190613559565b60405180910390a1611c3d565b601360009054906101000a900473ffffffffffffffffffffffffffffffffffffffff1673ffffffffffffffffffffffffffffffffffffffff168973ffffffffffffffffffffffffffffffffffffffff161415611c3c576009549350600c549250600b549150600a5490507f6c133614d398aee3b1f20be73bbca8de6eef47a73120de320ca6eaf5ad20e8678a8a601360009054906101000a900473ffffffffffffffffffffffffffffffffffffffff16604051611c3393929190613559565b60405180910390a15b5b6000611c656064611c57878c6120a290919063ffffffff16565b6120b890919063ffffffff16565b9050611c748b8a8686866120ce565b611c87818a61208c90919063ffffffff16565b9550611cdb86600360008d73ffffffffffffffffffffffffffffffffffffffff1673ffffffffffffffffffffffffffffffffffffffff16815260200190815260200160002054611e5a90919063ffffffff16565b600360008c73ffffffffffffffffffffffffffffffffffffffff1673ffffffffffffffffffffffffffffffffffffffff168152602001908152602001600020819055508973ffffffffffffffffffffffffffffffffffffffff168b73ffffffffffffffffffffffffffffffffffffffff167fddf252ad1be2c89b69c2b068fc378daa952ba7f163c4a11628f55a4df523b3ef88604051611d7b919061278c565b60405180910390a3505050505050505b600190509392505050565b60008060009054906101000a900473ffffffffffffffffffffffffffffffffffffffff169050816000806101000a81548173ffffffffffffffffffffffffffffffffffffffff021916908373ffffffffffffffffffffffffffffffffffffffff1602179055508173ffffffffffffffffffffffffffffffffffffffff168173ffffffffffffffffffffffffffffffffffffffff167f8be0079c531659141344cd1fd0a4f28419497f9722a3daafe3b4186f6b6457e060405160405180910390a35050565b60008183611e689190613590565b905092915050565b6000600360008573ffffffffffffffffffffffffffffffffffffffff1673ffffffffffffffffffffffffffffffffffffffff16815260200190815260200160002054905081811015611ef7576040517f08c379a0000000000000000000000000000000000000000000000000000000008152600401611eee90613539565b60405180910390fd5b611f4982600360008773ffffffffffffffffffffffffffffffffffffffff1673ffffffffffffffffffffffffffffffffffffffff1681526020019081526020016000205461208c90919063ffffffff16565b600360008673ffffffffffffffffffffffffffffffffffffffff1673ffffffffffffffffffffffffffffffffffffffff16815260200190815260200160002081905550611fde82600360008673ffffffffffffffffffffffffffffffffffffffff1673ffffffffffffffffffffffffffffffffffffffff16815260200190815260200160002054611e5a90919063ffffffff16565b600360008573ffffffffffffffffffffffffffffffffffffffff1673ffffffffffffffffffffffffffffffffffffffff168152602001908152602001600020819055508273ffffffffffffffffffffffffffffffffffffffff168473ffffffffffffffffffffffffffffffffffffffff167fddf252ad1be2c89b69c2b068fc378daa952ba7f163c4a11628f55a4df523b3ef8460405161207e919061278c565b60405180910390a350505050565b6000818361209a91906135e6565b905092915050565b600081836120b09190612b79565b905092915050565b600081836120c69190613649565b905092915050565b60006120f660646120e886886120a290919063ffffffff16565b6120b890919063ffffffff16565b90506000612120606461211286896120a290919063ffffffff16565b6120b890919063ffffffff16565b9050600061214a606461213c868a6120a290919063ffffffff16565b6120b890919063ffffffff16565b90507f7820e686aa666c44af7add9076b26a1fac9f298d100db00647f8c08e3b568fe28383838a604051612181949392919061367a565b60405180910390a16121fd8360036000601060019054906101000a900473ffffffffffffffffffffffffffffffffffffffff1673ffffffffffffffffffffffffffffffffffffffff1673ffffffffffffffffffffffffffffffffffffffff16815260200190815260200160002054611e5a90919063ffffffff16565b60036000601060019054906101000a900473ffffffffffffffffffffffffffffffffffffffff1673ffffffffffffffffffffffffffffffffffffffff1673ffffffffffffffffffffffffffffffffffffffff168152602001908152602001600020819055506122d68160036000601160009054906101000a900473ffffffffffffffffffffffffffffffffffffffff1673ffffffffffffffffffffffffffffffffffffffff1673ffffffffffffffffffffffffffffffffffffffff16815260200190815260200160002054611e5a90919063ffffffff16565b60036000601160009054906101000a900473ffffffffffffffffffffffffffffffffffffffff1673ffffffffffffffffffffffffffffffffffffffff1673ffffffffffffffffffffffffffffffffffffffff168152602001908152602001600020819055506123af8260036000601360009054906101000a900473ffffffffffffffffffffffffffffffffffffffff1673ffffffffffffffffffffffffffffffffffffffff1673ffffffffffffffffffffffffffffffffffffffff16815260200190815260200160002054611e5a90919063ffffffff16565b60036000601360009054906101000a900473ffffffffffffffffffffffffffffffffffffffff1673ffffffffffffffffffffffffffffffffffffffff1673ffffffffffffffffffffffffffffffffffffffff16815260200190815260200160002081905550601060019054906101000a900473ffffffffffffffffffffffffffffffffffffffff1673ffffffffffffffffffffffffffffffffffffffff168873ffffffffffffffffffffffffffffffffffffffff167fddf252ad1be2c89b69c2b068fc378daa952ba7f163c4a11628f55a4df523b3ef85604051612493919061278c565b60405180910390a3601160009054906101000a900473ffffffffffffffffffffffffffffffffffffffff1673ffffffffffffffffffffffffffffffffffffffff168873ffffffffffffffffffffffffffffffffffffffff167fddf252ad1be2c89b69c2b068fc378daa952ba7f163c4a11628f55a4df523b3ef8360405161251a919061278c565b60405180910390a3601360009054906101000a900473ffffffffffffffffffffffffffffffffffffffff1673ffffffffffffffffffffffffffffffffffffffff168873ffffffffffffffffffffffffffffffffffffffff167fddf252ad1be2c89b69c2b068fc378daa952ba7f163c4a11628f55a4df523b3ef846040516125a1919061278c565b60405180910390a35050505050505050565b600081519050919050565b600082825260208201905092915050565b60005b838110156125ed5780820151818401526020810190506125d2565b838111156125fc576000848401525b50505050565b6000601f19601f8301169050919050565b600061261e826125b3565b61262881856125be565b93506126388185602086016125cf565b61264181612602565b840191505092915050565b600060208201905081810360008301526126668184612613565b905092915050565b600080fd5b600073ffffffffffffffffffffffffffffffffffffffff82169050919050565b600061269e82612673565b9050919050565b6126ae81612693565b81146126b957600080fd5b50565b6000813590506126cb816126a5565b92915050565b6000819050919050565b6126e4816126d1565b81146126ef57600080fd5b50565b600081359050612701816126db565b92915050565b6000806040838503121561271e5761271d61266e565b5b600061272c858286016126bc565b925050602061273d858286016126f2565b9150509250929050565b60008115159050919050565b61275c81612747565b82525050565b60006020820190506127776000830184612753565b92915050565b612786816126d1565b82525050565b60006020820190506127a1600083018461277d565b92915050565b6000602082840312156127bd576127bc61266e565b5b60006127cb848285016126f2565b91505092915050565b6000806000606084860312156127ed576127ec61266e565b5b60006127fb868287016126bc565b935050602061280c868287016126bc565b925050604061281d868287016126f2565b9150509250925092565b61283081612693565b82525050565b600060208201905061284b6000830184612827565b92915050565b600061010082019050612867600083018b61277d565b612874602083018a61277d565b612881604083018961277d565b61288e606083018861277d565b61289b608083018761277d565b6128a860a083018661277d565b6128b560c083018561277d565b6128c260e083018461277d565b9998505050505050505050565b600060ff82169050919050565b6128e5816128cf565b82525050565b600060208201905061290060008301846128dc565b92915050565b60006020828403121561291c5761291b61266e565b5b600061292a848285016126bc565b91505092915050565b61293c81612747565b811461294757600080fd5b50565b60008135905061295981612933565b92915050565b6000602082840312156129755761297461266e565b5b60006129838482850161294a565b91505092915050565b600080604083850312156129a3576129a261266e565b5b60006129b1858286016126bc565b92505060206129c2858286016126bc565b9150509250929050565b7f4e487b7100000000000000000000000000000000000000000000000000000000600052601160045260246000fd5b60008160011c9050919050565b6000808291508390505b6001851115612a5257808604811115612a2e57612a2d6129cc565b5b6001851615612a3d5780820291505b8081029050612a4b856129fb565b9450612a12565b94509492505050565b600082612a6b5760019050612b27565b81612a795760009050612b27565b8160018114612a8f5760028114612a9957612ac8565b6001915050612b27565b60ff841115612aab57612aaa6129cc565b5b8360020a915084821115612ac257612ac16129cc565b5b50612b27565b5060208310610133831016604e8410600b8410161715612afd5782820a905083811115612af857612af76129cc565b5b612b27565b612b0a8484846001612a08565b92509050818404811115612b2157612b206129cc565b5b81810290505b9392505050565b6000612b39826126d1565b9150612b44836128cf565b9250612b717fffffffffffffffffffffffffffffffffffffffffffffffffffffffffffffffff8484612a5b565b905092915050565b6000612b84826126d1565b9150612b8f836126d1565b9250817fffffffffffffffffffffffffffffffffffffffffffffffffffffffffffffffff0483118215151615612bc857612bc76129cc565b5b828202905092915050565b7f53656c6c206d61726b6574696e67207461782063616e6e6f74206265206d6f7260008201527f65207468616e2073656c6c205461780000000000000000000000000000000000602082015250565b6000612c2f602f836125be565b9150612c3a82612bd3565b604082019050919050565b60006020820190508181036000830152612c5e81612c22565b9050919050565b7f427579206c6971756964697479207461782063616e6e6f74206265206d6f726560008201527f207468616e206275792054617800000000000000000000000000000000000000602082015250565b6000612cc1602d836125be565b9150612ccc82612c65565b604082019050919050565b60006020820190508181036000830152612cf081612cb4565b9050919050565b7f427579206d61726b6574696e67207461782063616e6e6f74206265206d6f726560008201527f207468616e206275792054617800000000000000000000000000000000000000602082015250565b6000612d53602d836125be565b9150612d5e82612cf7565b604082019050919050565b60006020820190508181036000830152612d8281612d46565b9050919050565b7f5265776172642077616c6c657420697320746865207a65726f2061646472657360008201527f7300000000000000000000000000000000000000000000000000000000000000602082015250565b6000612de56021836125be565b9150612df082612d89565b604082019050919050565b60006020820190508181036000830152612e1481612dd8565b9050919050565b7f53656c6c207461782063616e6e6f74206265206d6f7265207468616e20323525600082015250565b6000612e516020836125be565b9150612e5c82612e1b565b602082019050919050565b60006020820190508181036000830152612e8081612e44565b9050919050565b7f4d61726b6574696e672077616c6c657420697320746865207a65726f2061646460008201527f7265737300000000000000000000000000000000000000000000000000000000602082015250565b6000612ee36024836125be565b9150612eee82612e87565b604082019050919050565b60006020820190508181036000830152612f1281612ed6565b9050919050565b7f53514e4554204164647265737320697320746865207a65726f2061646472657360008201527f7300000000000000000000000000000000000000000000000000000000000000602082015250565b6000612f756021836125be565b9150612f8082612f19565b604082019050919050565b60006020820190508181036000830152612fa481612f68565b9050919050565b7f42757920726577617264207461782063616e6e6f74206265206d6f726520746860008201527f616e206275792054617800000000000000000000000000000000000000000000602082015250565b6000613007602a836125be565b915061301282612fab565b604082019050919050565b6000602082019050818103600083015261303681612ffa565b9050919050565b7f53656c6c20726577617264207461782063616e6e6f74206265206d6f7265207460008201527f68616e2073656c6c205461780000000000000000000000000000000000000000602082015250565b6000613099602c836125be565b91506130a48261303d565b604082019050919050565b600060208201905081810360008301526130c88161308c565b9050919050565b7f546f6b656e2050616972204164647265737320697320746865207a65726f206160008201527f6464726573730000000000000000000000000000000000000000000000000000602082015250565b600061312b6026836125be565b9150613136826130cf565b604082019050919050565b6000602082019050818103600083015261315a8161311e565b9050919050565b7f427579207461782063616e6e6f74206265206d6f7265207468616e2032352500600082015250565b6000613197601f836125be565b91506131a282613161565b602082019050919050565b600060208201905081810360008301526131c68161318a565b9050919050565b7f4f776e61626c653a206e6577206f776e657220697320746865207a65726f206160008201527f6464726573730000000000000000000000000000000000000000000000000000602082015250565b60006132296026836125be565b9150613234826131cd565b604082019050919050565b600060208201905081810360008301526132588161321c565b9050919050565b7f53656c6c206c6971756964697479207461782063616e6e6f74206265206d6f7260008201527f65207468616e2073656c6c205461780000000000000000000000000000000000602082015250565b60006132bb602f836125be565b91506132c68261325f565b604082019050919050565b600060208201905081810360008301526132ea816132ae565b9050919050565b7f4f776e61626c653a2063616c6c6572206973206e6f7420746865206f776e6572600082015250565b60006133276020836125be565b9150613332826132f1565b602082019050919050565b600060208201905081810360008301526133568161331a565b9050919050565b7f54726164696e67206973206e6f7420656e61626c656420796574000000000000600082015250565b6000613393601a836125be565b915061339e8261335d565b602082019050919050565b600060208201905081810360008301526133c281613386565b9050919050565b7f5472616e7366657220616d6f756e74206578636565647320746865206d61785460008201527f78416d6f756e742e000000000000000000000000000000000000000000000000602082015250565b60006134256028836125be565b9150613430826133c9565b604082019050919050565b6000602082019050818103600083015261345481613418565b9050919050565b7f5472616e7366657220616d6f756e74206578636565647320746865206d61785760008201527f616c6c6574416d6f756e742e0000000000000000000000000000000000000000602082015250565b60006134b7602c836125be565b91506134c28261345b565b604082019050919050565b600060208201905081810360008301526134e6816134aa565b9050919050565b7f5472616e7366657220616d6f756e7420657863656564732062616c616e636500600082015250565b6000613523601f836125be565b915061352e826134ed565b602082019050919050565b6000602082019050818103600083015261355281613516565b9050919050565b600060608201905061356e6000830186612827565b61357b6020830185612827565b6135886040830184612827565b949350505050565b600061359b826126d1565b91506135a6836126d1565b9250827fffffffffffffffffffffffffffffffffffffffffffffffffffffffffffffffff038211156135db576135da6129cc565b5b828201905092915050565b60006135f1826126d1565b91506135fc836126d1565b92508282101561360f5761360e6129cc565b5b828203905092915050565b7f4e487b7100000000000000000000000000000000000000000000000000000000600052601260045260246000fd5b6000613654826126d1565b915061365f836126d1565b92508261366f5761366e61361a565b5b828204905092915050565b600060808201905061368f600083018761277d565b61369c602083018661277d565b6136a9604083018561277d565b6136b6606083018461277d565b9594505050505056fea2646970667358221220cd16cce66eb3f2dc9a67b9688aef5d4b138220fc26c29f2fc626ec9a31a4009164736f6c634300080a0033",
  "linkReferences": {},
  "deployedLinkReferences": {}
}