{
  "_format": "hh-sol-artifact-1",
  "contractName": "UniswapV2Router01",
  "sourceName": "contracts/periphery/UniswapV2Router01.sol",
  "abi": [
    {
      "inputs": [
        {
          "internalType": "address",
          "name": "_factory",
          "type": "address"
        },
        {
          "internalType": "address",
          "name": "_WETH",
          "type": "address"
        }
      ],
      "stateMutability": "nonpayable",
      "type": "constructor"
    },
    {
      "inputs": [],
      "name": "WETH",
      "outputs": [
        {
          "internalType": "address",
          "name": "",
          "type": "address"
        }
      ],
      "stateMutability": "view",
      "type": "function"
    },
    {
      "inputs": [
        {
          "internalType": "address",
          "name": "tokenA",
          "type": "address"
        },
        {
          "internalType": "address",
          "name": "tokenB",
          "type": "address"
        },
        {
          "internalType": "uint256",
          "name": "amountADesired",
          "type": "uint256"
        },
        {
          "internalType": "uint256",
          "name": "amountBDesired",
          "type": "uint256"
        },
        {
          "internalType": "uint256",
          "name": "amountAMin",
          "type": "uint256"
        },
        {
          "internalType": "uint256",
          "name": "amountBMin",
          "type": "uint256"
        },
        {
          "internalType": "address",
          "name": "to",
          "type": "address"
        },
        {
          "internalType": "uint256",
          "name": "deadline",
          "type": "uint256"
        }
      ],
      "name": "addLiquidity",
      "outputs": [
        {
          "internalType": "uint256",
          "name": "amountA",
          "type": "uint256"
        },
        {
          "internalType": "uint256",
          "name": "amountB",
          "type": "uint256"
        },
        {
          "internalType": "uint256",
          "name": "liquidity",
          "type": "uint256"
        }
      ],
      "stateMutability": "nonpayable",
      "type": "function"
    },
    {
      "inputs": [
        {
          "internalType": "address",
          "name": "token",
          "type": "address"
        },
        {
          "internalType": "uint256",
          "name": "amountTokenDesired",
          "type": "uint256"
        },
        {
          "internalType": "uint256",
          "name": "amountTokenMin",
          "type": "uint256"
        },
        {
          "internalType": "uint256",
          "name": "amountETHMin",
          "type": "uint256"
        },
        {
          "internalType": "address",
          "name": "to",
          "type": "address"
        },
        {
          "internalType": "uint256",
          "name": "deadline",
          "type": "uint256"
        }
      ],
      "name": "addLiquidityETH",
      "outputs": [
        {
          "internalType": "uint256",
          "name": "amountToken",
          "type": "uint256"
        },
        {
          "internalType": "uint256",
          "name": "amountETH",
          "type": "uint256"
        },
        {
          "internalType": "uint256",
          "name": "liquidity",
          "type": "uint256"
        }
      ],
      "stateMutability": "payable",
      "type": "function"
    },
    {
      "inputs": [],
      "name": "factory",
      "outputs": [
        {
          "internalType": "address",
          "name": "",
          "type": "address"
        }
      ],
      "stateMutability": "view",
      "type": "function"
    },
    {
      "inputs": [
        {
          "internalType": "uint256",
          "name": "amountOut",
          "type": "uint256"
        },
        {
          "internalType": "uint256",
          "name": "reserveIn",
          "type": "uint256"
        },
        {
          "internalType": "uint256",
          "name": "reserveOut",
          "type": "uint256"
        }
      ],
      "name": "getAmountIn",
      "outputs": [
        {
          "internalType": "uint256",
          "name": "amountIn",
          "type": "uint256"
        }
      ],
      "stateMutability": "pure",
      "type": "function"
    },
    {
      "inputs": [
        {
          "internalType": "uint256",
          "name": "amountIn",
          "type": "uint256"
        },
        {
          "internalType": "uint256",
          "name": "reserveIn",
          "type": "uint256"
        },
        {
          "internalType": "uint256",
          "name": "reserveOut",
          "type": "uint256"
        }
      ],
      "name": "getAmountOut",
      "outputs": [
        {
          "internalType": "uint256",
          "name": "amountOut",
          "type": "uint256"
        }
      ],
      "stateMutability": "pure",
      "type": "function"
    },
    {
      "inputs": [
        {
          "internalType": "uint256",
          "name": "amountOut",
          "type": "uint256"
        },
        {
          "internalType": "address[]",
          "name": "path",
          "type": "address[]"
        }
      ],
      "name": "getAmountsIn",
      "outputs": [
        {
          "internalType": "uint256[]",
          "name": "amounts",
          "type": "uint256[]"
        }
      ],
      "stateMutability": "view",
      "type": "function"
    },
    {
      "inputs": [
        {
          "internalType": "uint256",
          "name": "amountIn",
          "type": "uint256"
        },
        {
          "internalType": "address[]",
          "name": "path",
          "type": "address[]"
        }
      ],
      "name": "getAmountsOut",
      "outputs": [
        {
          "internalType": "uint256[]",
          "name": "amounts",
          "type": "uint256[]"
        }
      ],
      "stateMutability": "view",
      "type": "function"
    },
    {
      "inputs": [
        {
          "internalType": "uint256",
          "name": "amountA",
          "type": "uint256"
        },
        {
          "internalType": "uint256",
          "name": "reserveA",
          "type": "uint256"
        },
        {
          "internalType": "uint256",
          "name": "reserveB",
          "type": "uint256"
        }
      ],
      "name": "quote",
      "outputs": [
        {
          "internalType": "uint256",
          "name": "amountB",
          "type": "uint256"
        }
      ],
      "stateMutability": "pure",
      "type": "function"
    },
    {
      "inputs": [
        {
          "internalType": "address",
          "name": "tokenA",
          "type": "address"
        },
        {
          "internalType": "address",
          "name": "tokenB",
          "type": "address"
        },
        {
          "internalType": "uint256",
          "name": "liquidity",
          "type": "uint256"
        },
        {
          "internalType": "uint256",
          "name": "amountAMin",
          "type": "uint256"
        },
        {
          "internalType": "uint256",
          "name": "amountBMin",
          "type": "uint256"
        },
        {
          "internalType": "address",
          "name": "to",
          "type": "address"
        },
        {
          "internalType": "uint256",
          "name": "deadline",
          "type": "uint256"
        }
      ],
      "name": "removeLiquidity",
      "outputs": [
        {
          "internalType": "uint256",
          "name": "amountA",
          "type": "uint256"
        },
        {
          "internalType": "uint256",
          "name": "amountB",
          "type": "uint256"
        }
      ],
      "stateMutability": "nonpayable",
      "type": "function"
    },
    {
      "inputs": [
        {
          "internalType": "address",
          "name": "token",
          "type": "address"
        },
        {
          "internalType": "uint256",
          "name": "liquidity",
          "type": "uint256"
        },
        {
          "internalType": "uint256",
          "name": "amountTokenMin",
          "type": "uint256"
        },
        {
          "internalType": "uint256",
          "name": "amountETHMin",
          "type": "uint256"
        },
        {
          "internalType": "address",
          "name": "to",
          "type": "address"
        },
        {
          "internalType": "uint256",
          "name": "deadline",
          "type": "uint256"
        }
      ],
      "name": "removeLiquidityETH",
      "outputs": [
        {
          "internalType": "uint256",
          "name": "amountToken",
          "type": "uint256"
        },
        {
          "internalType": "uint256",
          "name": "amountETH",
          "type": "uint256"
        }
      ],
      "stateMutability": "nonpayable",
      "type": "function"
    },
    {
      "inputs": [
        {
          "internalType": "address",
          "name": "tokenA",
          "type": "address"
        },
        {
          "internalType": "address",
          "name": "tokenB",
          "type": "address"
        },
        {
          "internalType": "uint256",
          "name": "liquidity",
          "type": "uint256"
        },
        {
          "internalType": "uint256",
          "name": "amountAMin",
          "type": "uint256"
        },
        {
          "internalType": "uint256",
          "name": "amountBMin",
          "type": "uint256"
        },
        {
          "internalType": "address",
          "name": "to",
          "type": "address"
        },
        {
          "internalType": "uint256",
          "name": "deadline",
          "type": "uint256"
        },
        {
          "internalType": "bool",
          "name": "approveMax",
          "type": "bool"
        },
        {
          "internalType": "uint8",
          "name": "v",
          "type": "uint8"
        },
        {
          "internalType": "bytes32",
          "name": "r",
          "type": "bytes32"
        },
        {
          "internalType": "bytes32",
          "name": "s",
          "type": "bytes32"
        }
      ],
      "name": "removeLiquidityWithPermit",
      "outputs": [
        {
          "internalType": "uint256",
          "name": "amountA",
          "type": "uint256"
        },
        {
          "internalType": "uint256",
          "name": "amountB",
          "type": "uint256"
        }
      ],
      "stateMutability": "nonpayable",
      "type": "function"
    },
    {
      "inputs": [
        {
          "internalType": "uint256",
          "name": "amountOut",
          "type": "uint256"
        },
        {
          "internalType": "address[]",
          "name": "path",
          "type": "address[]"
        },
        {
          "internalType": "address",
          "name": "to",
          "type": "address"
        },
        {
          "internalType": "uint256",
          "name": "deadline",
          "type": "uint256"
        }
      ],
      "name": "swapETHForExactTokens",
      "outputs": [
        {
          "internalType": "uint256[]",
          "name": "amounts",
          "type": "uint256[]"
        }
      ],
      "stateMutability": "payable",
      "type": "function"
    },
    {
      "inputs": [
        {
          "internalType": "uint256",
          "name": "amountOutMin",
          "type": "uint256"
        },
        {
          "internalType": "address[]",
          "name": "path",
          "type": "address[]"
        },
        {
          "internalType": "address",
          "name": "to",
          "type": "address"
        },
        {
          "internalType": "uint256",
          "name": "deadline",
          "type": "uint256"
        }
      ],
      "name": "swapExactETHForTokens",
      "outputs": [
        {
          "internalType": "uint256[]",
          "name": "amounts",
          "type": "uint256[]"
        }
      ],
      "stateMutability": "payable",
      "type": "function"
    },
    {
      "inputs": [
        {
          "internalType": "uint256",
          "name": "amountIn",
          "type": "uint256"
        },
        {
          "internalType": "uint256",
          "name": "amountOutMin",
          "type": "uint256"
        },
        {
          "internalType": "address[]",
          "name": "path",
          "type": "address[]"
        },
        {
          "internalType": "address",
          "name": "to",
          "type": "address"
        },
        {
          "internalType": "uint256",
          "name": "deadline",
          "type": "uint256"
        }
      ],
      "name": "swapExactTokensForETH",
      "outputs": [
        {
          "internalType": "uint256[]",
          "name": "amounts",
          "type": "uint256[]"
        }
      ],
      "stateMutability": "nonpayable",
      "type": "function"
    },
    {
      "inputs": [
        {
          "internalType": "uint256",
          "name": "amountIn",
          "type": "uint256"
        },
        {
          "internalType": "uint256",
          "name": "amountOutMin",
          "type": "uint256"
        },
        {
          "internalType": "address[]",
          "name": "path",
          "type": "address[]"
        },
        {
          "internalType": "address",
          "name": "to",
          "type": "address"
        },
        {
          "internalType": "uint256",
          "name": "deadline",
          "type": "uint256"
        }
      ],
      "name": "swapExactTokensForTokens",
      "outputs": [
        {
          "internalType": "uint256[]",
          "name": "amounts",
          "type": "uint256[]"
        }
      ],
      "stateMutability": "nonpayable",
      "type": "function"
    },
    {
      "inputs": [
        {
          "internalType": "uint256",
          "name": "amountOut",
          "type": "uint256"
        },
        {
          "internalType": "uint256",
          "name": "amountInMax",
          "type": "uint256"
        },
        {
          "internalType": "address[]",
          "name": "path",
          "type": "address[]"
        },
        {
          "internalType": "address",
          "name": "to",
          "type": "address"
        },
        {
          "internalType": "uint256",
          "name": "deadline",
          "type": "uint256"
        }
      ],
      "name": "swapTokensForExactETH",
      "outputs": [
        {
          "internalType": "uint256[]",
          "name": "amounts",
          "type": "uint256[]"
        }
      ],
      "stateMutability": "nonpayable",
      "type": "function"
    },
    {
      "inputs": [
        {
          "internalType": "uint256",
          "name": "amountOut",
          "type": "uint256"
        },
        {
          "internalType": "uint256",
          "name": "amountInMax",
          "type": "uint256"
        },
        {
          "internalType": "address[]",
          "name": "path",
          "type": "address[]"
        },
        {
          "internalType": "address",
          "name": "to",
          "type": "address"
        },
        {
          "internalType": "uint256",
          "name": "deadline",
          "type": "uint256"
        }
      ],
      "name": "swapTokensForExactTokens",
      "outputs": [
        {
          "internalType": "uint256[]",
          "name": "amounts",
          "type": "uint256[]"
        }
      ],
      "stateMutability": "nonpayable",
      "type": "function"
    },
    {
      "stateMutability": "payable",
      "type": "receive"
    }
  ],
  "bytecode": "0x60c060405234801561001057600080fd5b5060405162004e7b38038062004e7b8339818101604052604081101561003557600080fd5b8101908080519060200190929190805190602001909291905050508173ffffffffffffffffffffffffffffffffffffffff1660808173ffffffffffffffffffffffffffffffffffffffff1660601b815250508073ffffffffffffffffffffffffffffffffffffffff1660a08173ffffffffffffffffffffffffffffffffffffffff1660601b81525050505060805160601c60a05160601c614cc9620001b260003980610114528061109352806110d1528061120152806114df5280611a535280611d2e5280611e75528061203d52806120d252806125265280612b5f5280612bb85280612bec5280612c6d5280612ead528061307252806131075250806112f352806113ff52806115b252806115ea52806117e352806118ef5280611b455280611c4e5280611f6252806121115280612332528061243b52806125df52806128e1528061290a52806129d15280612b965280612f9a52806131465280613d285280613d6c5280614302528061442a52806145405250614cc96000f3fe60806040526004361061010d5760003560e01c80638803dbee11610095578063c45a015511610064578063c45a015514610c02578063d06ca61f14610c59578063e8e3370014610d7d578063f305d71914610e63578063fb3bdb4114610f1157610169565b80638803dbee1461095b578063ad5c464814610a74578063ad615dec14610acb578063baa2abde14610b2e57610169565b80632195995c116100dc5780632195995c146104c257806338ed1739146105c45780634a25d94a146106dd5780637ff36ab5146107f657806385f8c259146108f857610169565b806302751cec1461016e578063054d50d41461022257806318cbafe5146102855780631f00ca741461039e57610169565b36610169577f000000000000000000000000000000000000000000000000000000000000000073ffffffffffffffffffffffffffffffffffffffff163373ffffffffffffffffffffffffffffffffffffffff161461016757fe5b005b600080fd5b34801561017a57600080fd5b50610205600480360360c081101561019157600080fd5b81019080803573ffffffffffffffffffffffffffffffffffffffff169060200190929190803590602001909291908035906020019092919080359060200190929190803573ffffffffffffffffffffffffffffffffffffffff16906020019092919080359060200190929190505050611013565b604051808381526020018281526020019250505060405180910390f35b34801561022e57600080fd5b5061026f6004803603606081101561024557600080fd5b81019080803590602001909291908035906020019092919080359060200190929190505050611170565b6040518082815260200191505060405180910390f35b34801561029157600080fd5b50610347600480360360a08110156102a857600080fd5b810190808035906020019092919080359060200190929190803590602001906401000000008111156102d957600080fd5b8201836020820111156102eb57600080fd5b8035906020019184602083028401116401000000008311171561030d57600080fd5b9091929391929390803573ffffffffffffffffffffffffffffffffffffffff16906020019092919080359060200190929190505050611186565b6040518080602001828103825283818151815260200191508051906020019060200280838360005b8381101561038a57808201518184015260208101905061036f565b505050509050019250505060405180910390f35b3480156103aa57600080fd5b5061046b600480360360408110156103c157600080fd5b8101908080359060200190929190803590602001906401000000008111156103e857600080fd5b8201836020820111156103fa57600080fd5b8035906020019184602083028401116401000000008311171561041c57600080fd5b919080806020026020016040519081016040528093929190818152602001838360200280828437600081840152601f19601f8201169050808301925050505050505091929192905050506115ab565b6040518080602001828103825283818151815260200191508051906020019060200280838360005b838110156104ae578082015181840152602081019050610493565b505050509050019250505060405180910390f35b3480156104ce57600080fd5b506105a760048036036101608110156104e657600080fd5b81019080803573ffffffffffffffffffffffffffffffffffffffff169060200190929190803573ffffffffffffffffffffffffffffffffffffffff169060200190929190803590602001909291908035906020019092919080359060200190929190803573ffffffffffffffffffffffffffffffffffffffff16906020019092919080359060200190929190803515159060200190929190803560ff16906020019092919080359060200190929190803590602001909291905050506115e0565b604051808381526020018281526020019250505060405180910390f35b3480156105d057600080fd5b50610686600480360360a08110156105e757600080fd5b8101908080359060200190929190803590602001909291908035906020019064010000000081111561061857600080fd5b82018360208201111561062a57600080fd5b8035906020019184602083028401116401000000008311171561064c57600080fd5b9091929391929390803573ffffffffffffffffffffffffffffffffffffffff16906020019092919080359060200190929190505050611765565b6040518080602001828103825283818151815260200191508051906020019060200280838360005b838110156106c95780820151818401526020810190506106ae565b505050509050019250505060405180910390f35b3480156106e957600080fd5b5061079f600480360360a081101561070057600080fd5b8101908080359060200190929190803590602001909291908035906020019064010000000081111561073157600080fd5b82018360208201111561074357600080fd5b8035906020019184602083028401116401000000008311171561076557600080fd5b9091929391929390803573ffffffffffffffffffffffffffffffffffffffff169060200190929190803590602001909291905050506119d8565b6040518080602001828103825283818151815260200191508051906020019060200280838360005b838110156107e25780820151818401526020810190506107c7565b505050509050019250505060405180910390f35b6108a16004803603608081101561080c57600080fd5b81019080803590602001909291908035906020019064010000000081111561083357600080fd5b82018360208201111561084557600080fd5b8035906020019184602083028401116401000000008311171561086757600080fd5b9091929391929390803573ffffffffffffffffffffffffffffffffffffffff16906020019092919080359060200190929190505050611dfa565b6040518080602001828103825283818151815260200191508051906020019060200280838360005b838110156108e45780820151818401526020810190506108c9565b505050509050019250505060405180910390f35b34801561090457600080fd5b506109456004803603606081101561091b57600080fd5b8101908080359060200190929190803590602001909291908035906020019092919050505061229e565b6040518082815260200191505060405180910390f35b34801561096757600080fd5b50610a1d600480360360a081101561097e57600080fd5b810190808035906020019092919080359060200190929190803590602001906401000000008111156109af57600080fd5b8201836020820111156109c157600080fd5b803590602001918460208302840111640100000000831117156109e357600080fd5b9091929391929390803573ffffffffffffffffffffffffffffffffffffffff169060200190929190803590602001909291905050506122b4565b6040518080602001828103825283818151815260200191508051906020019060200280838360005b83811015610a60578082015181840152602081019050610a45565b505050509050019250505060405180910390f35b348015610a8057600080fd5b50610a89612524565b604051808273ffffffffffffffffffffffffffffffffffffffff1673ffffffffffffffffffffffffffffffffffffffff16815260200191505060405180910390f35b348015610ad757600080fd5b50610b1860048036036060811015610aee57600080fd5b81019080803590602001909291908035906020019092919080359060200190929190505050612548565b6040518082815260200191505060405180910390f35b348015610b3a57600080fd5b50610be5600480360360e0811015610b5157600080fd5b81019080803573ffffffffffffffffffffffffffffffffffffffff169060200190929190803573ffffffffffffffffffffffffffffffffffffffff169060200190929190803590602001909291908035906020019092919080359060200190929190803573ffffffffffffffffffffffffffffffffffffffff1690602001909291908035906020019092919050505061255e565b604051808381526020018281526020019250505060405180910390f35b348015610c0e57600080fd5b50610c176128df565b604051808273ffffffffffffffffffffffffffffffffffffffff1673ffffffffffffffffffffffffffffffffffffffff16815260200191505060405180910390f35b348015610c6557600080fd5b50610d2660048036036040811015610c7c57600080fd5b810190808035906020019092919080359060200190640100000000811115610ca357600080fd5b820183602082011115610cb557600080fd5b80359060200191846020830284011164010000000083111715610cd757600080fd5b919080806020026020016040519081016040528093929190818152602001838360200280828437600081840152601f19601f820116905080830192505050505050509192919290505050612903565b6040518080602001828103825283818151815260200191508051906020019060200280838360005b83811015610d69578082015181840152602081019050610d4e565b505050509050019250505060405180910390f35b348015610d8957600080fd5b50610e3f6004803603610100811015610da157600080fd5b81019080803573ffffffffffffffffffffffffffffffffffffffff169060200190929190803573ffffffffffffffffffffffffffffffffffffffff16906020019092919080359060200190929190803590602001909291908035906020019092919080359060200190929190803573ffffffffffffffffffffffffffffffffffffffff16906020019092919080359060200190929190505050612938565b60405180848152602001838152602001828152602001935050505060405180910390f35b610eed600480360360c0811015610e7957600080fd5b81019080803573ffffffffffffffffffffffffffffffffffffffff169060200190929190803590602001909291908035906020019092919080359060200190929190803573ffffffffffffffffffffffffffffffffffffffff16906020019092919080359060200190929190505050612add565b60405180848152602001838152602001828152602001935050505060405180910390f35b610fbc60048036036080811015610f2757600080fd5b810190808035906020019092919080359060200190640100000000811115610f4e57600080fd5b820183602082011115610f6057600080fd5b80359060200191846020830284011164010000000083111715610f8257600080fd5b9091929391929390803573ffffffffffffffffffffffffffffffffffffffff16906020019092919080359060200190929190505050612e32565b6040518080602001828103825283818151815260200191508051906020019060200280838360005b83811015610fff578082015181840152602081019050610fe4565b505050509050019250505060405180910390f35b600080824281101561108d576040517f08c379a00000000000000000000000000000000000000000000000000000000081526004018080602001828103825260188152602001807f556e69737761705632526f757465723a2045585049524544000000000000000081525060200191505060405180910390fd5b6110bc897f00000000000000000000000000000000000000000000000000000000000000008a8a8a308a61255e565b80935081945050506110cf898685613310565b7f000000000000000000000000000000000000000000000000000000000000000073ffffffffffffffffffffffffffffffffffffffff16632e1a7d4d836040518263ffffffff1660e01b815260040180828152602001915050600060405180830381600087803b15801561114257600080fd5b505af1158015611156573d6000803e3d6000fd5b5050505061116485836134ec565b50965096945050505050565b600061117d84848461364b565b90509392505050565b606081428110156111ff576040517f08c379a00000000000000000000000000000000000000000000000000000000081526004018080602001828103825260188152602001807f556e69737761705632526f757465723a2045585049524544000000000000000081525060200191505060405180910390fd5b7f000000000000000000000000000000000000000000000000000000000000000073ffffffffffffffffffffffffffffffffffffffff1686866001898990500381811061124857fe5b9050602002013573ffffffffffffffffffffffffffffffffffffffff1673ffffffffffffffffffffffffffffffffffffffff16146112ee576040517f08c379a000000000000000000000000000000000000000000000000000000000815260040180806020018281038252601d8152602001807f556e69737761705632526f757465723a20494e56414c49445f5041544800000081525060200191505060405180910390fd5b61135a7f000000000000000000000000000000000000000000000000000000000000000089888880806020026020016040519081016040528093929190818152602001838360200280828437600081840152601f19601f8201169050808301925050505050505061377b565b9150868260018451038151811061136d57fe5b602002602001015110156113cc576040517f08c379a000000000000000000000000000000000000000000000000000000000815260040180806020018281038252602b815260200180614c11602b913960400191505060405180910390fd5b611491868660008181106113dc57fe5b9050602002013573ffffffffffffffffffffffffffffffffffffffff16336114777f00000000000000000000000000000000000000000000000000000000000000008a8a600081811061142b57fe5b9050602002013573ffffffffffffffffffffffffffffffffffffffff168b8b600181811061145557fe5b9050602002013573ffffffffffffffffffffffffffffffffffffffff166138f3565b8560008151811061148457fe5b6020026020010151613a4e565b6114dd82878780806020026020016040519081016040528093929190818152602001838360200280828437600081840152601f19601f8201169050808301925050505050505030613c5f565b7f000000000000000000000000000000000000000000000000000000000000000073ffffffffffffffffffffffffffffffffffffffff16632e1a7d4d8360018551038151811061152957fe5b60200260200101516040518263ffffffff1660e01b815260040180828152602001915050600060405180830381600087803b15801561156757600080fd5b505af115801561157b573d6000803e3d6000fd5b505050506115a0848360018551038151811061159357fe5b60200260200101516134ec565b509695505050505050565b60606115d87f00000000000000000000000000000000000000000000000000000000000000008484613f0a565b905092915050565b60008060006116107f00000000000000000000000000000000000000000000000000000000000000008f8f6138f3565b905060008761161f578c611641565b7fffffffffffffffffffffffffffffffffffffffffffffffffffffffffffffffff5b90508173ffffffffffffffffffffffffffffffffffffffff1663d505accf3330848d8c8c8c6040518863ffffffff1660e01b8152600401808873ffffffffffffffffffffffffffffffffffffffff1673ffffffffffffffffffffffffffffffffffffffff1681526020018773ffffffffffffffffffffffffffffffffffffffff1673ffffffffffffffffffffffffffffffffffffffff1681526020018681526020018581526020018460ff1660ff168152602001838152602001828152602001975050505050505050600060405180830381600087803b15801561172457600080fd5b505af1158015611738573d6000803e3d6000fd5b5050505061174b8f8f8f8f8f8f8f61255e565b809450819550505050509b509b9950505050505050505050565b606081428110156117de576040517f08c379a00000000000000000000000000000000000000000000000000000000081526004018080602001828103825260188152602001807f556e69737761705632526f757465723a2045585049524544000000000000000081525060200191505060405180910390fd5b61184a7f000000000000000000000000000000000000000000000000000000000000000089888880806020026020016040519081016040528093929190818152602001838360200280828437600081840152601f19601f8201169050808301925050505050505061377b565b9150868260018451038151811061185d57fe5b602002602001015110156118bc576040517f08c379a000000000000000000000000000000000000000000000000000000000815260040180806020018281038252602b815260200180614c11602b913960400191505060405180910390fd5b611981868660008181106118cc57fe5b9050602002013573ffffffffffffffffffffffffffffffffffffffff16336119677f00000000000000000000000000000000000000000000000000000000000000008a8a600081811061191b57fe5b9050602002013573ffffffffffffffffffffffffffffffffffffffff168b8b600181811061194557fe5b9050602002013573ffffffffffffffffffffffffffffffffffffffff166138f3565b8560008151811061197457fe5b6020026020010151613a4e565b6119cd82878780806020026020016040519081016040528093929190818152602001838360200280828437600081840152601f19601f8201169050808301925050505050505086613c5f565b509695505050505050565b60608142811015611a51576040517f08c379a00000000000000000000000000000000000000000000000000000000081526004018080602001828103825260188152602001807f556e69737761705632526f757465723a2045585049524544000000000000000081525060200191505060405180910390fd5b7f000000000000000000000000000000000000000000000000000000000000000073ffffffffffffffffffffffffffffffffffffffff16868660018989905003818110611a9a57fe5b9050602002013573ffffffffffffffffffffffffffffffffffffffff1673ffffffffffffffffffffffffffffffffffffffff1614611b40576040517f08c379a000000000000000000000000000000000000000000000000000000000815260040180806020018281038252601d8152602001807f556e69737761705632526f757465723a20494e56414c49445f5041544800000081525060200191505060405180910390fd5b611bac7f000000000000000000000000000000000000000000000000000000000000000089888880806020026020016040519081016040528093929190818152602001838360200280828437600081840152601f19601f82011690508083019250505050505050613f0a565b91508682600081518110611bbc57fe5b60200260200101511115611c1b576040517f08c379a0000000000000000000000000000000000000000000000000000000008152600401808060200182810382526027815260200180614bc46027913960400191505060405180910390fd5b611ce086866000818110611c2b57fe5b9050602002013573ffffffffffffffffffffffffffffffffffffffff1633611cc67f00000000000000000000000000000000000000000000000000000000000000008a8a6000818110611c7a57fe5b9050602002013573ffffffffffffffffffffffffffffffffffffffff168b8b6001818110611ca457fe5b9050602002013573ffffffffffffffffffffffffffffffffffffffff166138f3565b85600081518110611cd357fe5b6020026020010151613a4e565b611d2c82878780806020026020016040519081016040528093929190818152602001838360200280828437600081840152601f19601f8201169050808301925050505050505030613c5f565b7f000000000000000000000000000000000000000000000000000000000000000073ffffffffffffffffffffffffffffffffffffffff16632e1a7d4d83600185510381518110611d7857fe5b60200260200101516040518263ffffffff1660e01b815260040180828152602001915050600060405180830381600087803b158015611db657600080fd5b505af1158015611dca573d6000803e3d6000fd5b50505050611def8483600185510381518110611de257fe5b60200260200101516134ec565b509695505050505050565b60608142811015611e73576040517f08c379a00000000000000000000000000000000000000000000000000000000081526004018080602001828103825260188152602001807f556e69737761705632526f757465723a2045585049524544000000000000000081525060200191505060405180910390fd5b7f000000000000000000000000000000000000000000000000000000000000000073ffffffffffffffffffffffffffffffffffffffff1686866000818110611eb757fe5b9050602002013573ffffffffffffffffffffffffffffffffffffffff1673ffffffffffffffffffffffffffffffffffffffff1614611f5d576040517f08c379a000000000000000000000000000000000000000000000000000000000815260040180806020018281038252601d8152602001807f556e69737761705632526f757465723a20494e56414c49445f5041544800000081525060200191505060405180910390fd5b611fc97f000000000000000000000000000000000000000000000000000000000000000034888880806020026020016040519081016040528093929190818152602001838360200280828437600081840152601f19601f8201169050808301925050505050505061377b565b91508682600184510381518110611fdc57fe5b6020026020010151101561203b576040517f08c379a000000000000000000000000000000000000000000000000000000000815260040180806020018281038252602b815260200180614c11602b913960400191505060405180910390fd5b7f000000000000000000000000000000000000000000000000000000000000000073ffffffffffffffffffffffffffffffffffffffff1663d0e30db08360008151811061208457fe5b60200260200101516040518263ffffffff1660e01b81526004016000604051808303818588803b1580156120b757600080fd5b505af11580156120cb573d6000803e3d6000fd5b50505050507f000000000000000000000000000000000000000000000000000000000000000073ffffffffffffffffffffffffffffffffffffffff1663a9059cbb6121897f00000000000000000000000000000000000000000000000000000000000000008989600081811061213d57fe5b9050602002013573ffffffffffffffffffffffffffffffffffffffff168a8a600181811061216757fe5b9050602002013573ffffffffffffffffffffffffffffffffffffffff166138f3565b8460008151811061219657fe5b60200260200101516040518363ffffffff1660e01b8152600401808373ffffffffffffffffffffffffffffffffffffffff1673ffffffffffffffffffffffffffffffffffffffff16815260200182815260200192505050602060405180830381600087803b15801561220757600080fd5b505af115801561221b573d6000803e3d6000fd5b505050506040513d602081101561223157600080fd5b810190808051906020019092919050505061224857fe5b61229482878780806020026020016040519081016040528093929190818152602001838360200280828437600081840152601f19601f8201169050808301925050505050505086613c5f565b5095945050505050565b60006122ab84848461364b565b90509392505050565b6060814281101561232d576040517f08c379a00000000000000000000000000000000000000000000000000000000081526004018080602001828103825260188152602001807f556e69737761705632526f757465723a2045585049524544000000000000000081525060200191505060405180910390fd5b6123997f000000000000000000000000000000000000000000000000000000000000000089888880806020026020016040519081016040528093929190818152602001838360200280828437600081840152601f19601f82011690508083019250505050505050613f0a565b915086826000815181106123a957fe5b60200260200101511115612408576040517f08c379a0000000000000000000000000000000000000000000000000000000008152600401808060200182810382526027815260200180614bc46027913960400191505060405180910390fd5b6124cd8686600081811061241857fe5b9050602002013573ffffffffffffffffffffffffffffffffffffffff16336124b37f00000000000000000000000000000000000000000000000000000000000000008a8a600081811061246757fe5b9050602002013573ffffffffffffffffffffffffffffffffffffffff168b8b600181811061249157fe5b9050602002013573ffffffffffffffffffffffffffffffffffffffff166138f3565b856000815181106124c057fe5b6020026020010151613a4e565b61251982878780806020026020016040519081016040528093929190818152602001838360200280828437600081840152601f19601f8201169050808301925050505050505086613c5f565b509695505050505050565b7f000000000000000000000000000000000000000000000000000000000000000081565b600061255584848461408a565b90509392505050565b60008082428110156125d8576040517f08c379a00000000000000000000000000000000000000000000000000000000081526004018080602001828103825260188152602001807f556e69737761705632526f757465723a2045585049524544000000000000000081525060200191505060405180910390fd5b60006126057f00000000000000000000000000000000000000000000000000000000000000008c8c6138f3565b90508073ffffffffffffffffffffffffffffffffffffffff166323b872dd33838c6040518463ffffffff1660e01b8152600401808473ffffffffffffffffffffffffffffffffffffffff1673ffffffffffffffffffffffffffffffffffffffff1681526020018373ffffffffffffffffffffffffffffffffffffffff1673ffffffffffffffffffffffffffffffffffffffff1681526020018281526020019350505050602060405180830381600087803b1580156126c257600080fd5b505af11580156126d6573d6000803e3d6000fd5b505050506040513d60208110156126ec57600080fd5b8101908080519060200190929190505050506000808273ffffffffffffffffffffffffffffffffffffffff166389afcb44896040518263ffffffff1660e01b8152600401808273ffffffffffffffffffffffffffffffffffffffff1673ffffffffffffffffffffffffffffffffffffffff1681526020019150506040805180830381600087803b15801561277f57600080fd5b505af1158015612793573d6000803e3d6000fd5b505050506040513d60408110156127a957600080fd5b8101908080519060200190929190805190602001909291905050509150915060006127d48e8e61416e565b5090508073ffffffffffffffffffffffffffffffffffffffff168e73ffffffffffffffffffffffffffffffffffffffff1614612811578183612814565b82825b80975081985050508a871015612875576040517f08c379a0000000000000000000000000000000000000000000000000000000008152600401808060200182810382526026815260200180614beb6026913960400191505060405180910390fd5b898610156128ce576040517f08c379a0000000000000000000000000000000000000000000000000000000008152600401808060200182810382526026815260200180614b516026913960400191505060405180910390fd5b505050505097509795505050505050565b7f000000000000000000000000000000000000000000000000000000000000000081565b60606129307f0000000000000000000000000000000000000000000000000000000000000000848461377b565b905092915050565b600080600083428110156129b4576040517f08c379a00000000000000000000000000000000000000000000000000000000081526004018080602001828103825260188152602001807f556e69737761705632526f757465723a2045585049524544000000000000000081525060200191505060405180910390fd5b6129c28c8c8c8c8c8c6142e5565b809450819550505060006129f77f00000000000000000000000000000000000000000000000000000000000000008e8e6138f3565b9050612a058d338388613a4e565b612a118c338387613a4e565b8073ffffffffffffffffffffffffffffffffffffffff16636a627842886040518263ffffffff1660e01b8152600401808273ffffffffffffffffffffffffffffffffffffffff1673ffffffffffffffffffffffffffffffffffffffff168152602001915050602060405180830381600087803b158015612a9057600080fd5b505af1158015612aa4573d6000803e3d6000fd5b505050506040513d6020811015612aba57600080fd5b810190808051906020019092919050505092505050985098509895505050505050565b60008060008342811015612b59576040517f08c379a00000000000000000000000000000000000000000000000000000000081526004018080602001828103825260188152602001807f556e69737761705632526f757465723a2045585049524544000000000000000081525060200191505060405180910390fd5b612b878a7f00000000000000000000000000000000000000000000000000000000000000008b348c8c6142e5565b80945081955050506000612bdc7f00000000000000000000000000000000000000000000000000000000000000008c7f00000000000000000000000000000000000000000000000000000000000000006138f3565b9050612bea8b338388613a4e565b7f000000000000000000000000000000000000000000000000000000000000000073ffffffffffffffffffffffffffffffffffffffff1663d0e30db0856040518263ffffffff1660e01b81526004016000604051808303818588803b158015612c5257600080fd5b505af1158015612c66573d6000803e3d6000fd5b50505050507f000000000000000000000000000000000000000000000000000000000000000073ffffffffffffffffffffffffffffffffffffffff1663a9059cbb82866040518363ffffffff1660e01b8152600401808373ffffffffffffffffffffffffffffffffffffffff1673ffffffffffffffffffffffffffffffffffffffff16815260200182815260200192505050602060405180830381600087803b158015612d1257600080fd5b505af1158015612d26573d6000803e3d6000fd5b505050506040513d6020811015612d3c57600080fd5b8101908080519060200190929190505050612d5357fe5b8073ffffffffffffffffffffffffffffffffffffffff16636a627842886040518263ffffffff1660e01b8152600401808273ffffffffffffffffffffffffffffffffffffffff1673ffffffffffffffffffffffffffffffffffffffff168152602001915050602060405180830381600087803b158015612dd257600080fd5b505af1158015612de6573d6000803e3d6000fd5b505050506040513d6020811015612dfc57600080fd5b8101908080519060200190929190505050925083341115612e2457612e23338534036134ec565b5b505096509650969350505050565b60608142811015612eab576040517f08c379a00000000000000000000000000000000000000000000000000000000081526004018080602001828103825260188152602001807f556e69737761705632526f757465723a2045585049524544000000000000000081525060200191505060405180910390fd5b7f000000000000000000000000000000000000000000000000000000000000000073ffffffffffffffffffffffffffffffffffffffff1686866000818110612eef57fe5b9050602002013573ffffffffffffffffffffffffffffffffffffffff1673ffffffffffffffffffffffffffffffffffffffff1614612f95576040517f08c379a000000000000000000000000000000000000000000000000000000000815260040180806020018281038252601d8152602001807f556e69737761705632526f757465723a20494e56414c49445f5041544800000081525060200191505060405180910390fd5b6130017f000000000000000000000000000000000000000000000000000000000000000088888880806020026020016040519081016040528093929190818152602001838360200280828437600081840152601f19601f82011690508083019250505050505050613f0a565b9150348260008151811061301157fe5b60200260200101511115613070576040517f08c379a0000000000000000000000000000000000000000000000000000000008152600401808060200182810382526027815260200180614bc46027913960400191505060405180910390fd5b7f000000000000000000000000000000000000000000000000000000000000000073ffffffffffffffffffffffffffffffffffffffff1663d0e30db0836000815181106130b957fe5b60200260200101516040518263ffffffff1660e01b81526004016000604051808303818588803b1580156130ec57600080fd5b505af1158015613100573d6000803e3d6000fd5b50505050507f000000000000000000000000000000000000000000000000000000000000000073ffffffffffffffffffffffffffffffffffffffff1663a9059cbb6131be7f00000000000000000000000000000000000000000000000000000000000000008989600081811061317257fe5b9050602002013573ffffffffffffffffffffffffffffffffffffffff168a8a600181811061319c57fe5b9050602002013573ffffffffffffffffffffffffffffffffffffffff166138f3565b846000815181106131cb57fe5b60200260200101516040518363ffffffff1660e01b8152600401808373ffffffffffffffffffffffffffffffffffffffff1673ffffffffffffffffffffffffffffffffffffffff16815260200182815260200192505050602060405180830381600087803b15801561323c57600080fd5b505af1158015613250573d6000803e3d6000fd5b505050506040513d602081101561326657600080fd5b810190808051906020019092919050505061327d57fe5b6132c982878780806020026020016040519081016040528093929190818152602001838360200280828437600081840152601f19601f8201169050808301925050505050505086613c5f565b816000815181106132d657fe5b60200260200101513411156133065761330533836000815181106132f657fe5b602002602001015134036134ec565b5b5095945050505050565b600060608473ffffffffffffffffffffffffffffffffffffffff1663a9059cbb8585604051602401808373ffffffffffffffffffffffffffffffffffffffff1673ffffffffffffffffffffffffffffffffffffffff168152602001828152602001925050506040516020818303038152906040529060e01b6020820180517bffffffffffffffffffffffffffffffffffffffffffffffffffffffff83818316178352505050506040518082805190602001908083835b602083106133e957805182526020820191506020810190506020830392506133c6565b6001836020036101000a0380198251168184511680821785525050505050509050019150506000604051808303816000865af19150503d806000811461344b576040519150601f19603f3d011682016040523d82523d6000602084013e613450565b606091505b5091509150818015613490575060008151148061348f575080806020019051602081101561347d57600080fd5b81019080805190602001909291905050505b5b6134e5576040517f08c379a000000000000000000000000000000000000000000000000000000000815260040180806020018281038252602d815260200180614c3c602d913960400191505060405180910390fd5b5050505050565b60008273ffffffffffffffffffffffffffffffffffffffff1682600067ffffffffffffffff8111801561351e57600080fd5b506040519080825280601f01601f1916602001820160405280156135515781602001600182028036833780820191505090505b506040518082805190602001908083835b602083106135855780518252602082019150602081019050602083039250613562565b6001836020036101000a03801982511681845116808217855250505050505090500191505060006040518083038185875af1925050503d80600081146135e7576040519150601f19603f3d011682016040523d82523d6000602084013e6135ec565b606091505b5050905080613646576040517f08c379a0000000000000000000000000000000000000000000000000000000008152600401808060200182810382526034815260200180614af86034913960400191505060405180910390fd5b505050565b60008084116136a5576040517f08c379a000000000000000000000000000000000000000000000000000000000815260040180806020018281038252602b815260200180614c69602b913960400191505060405180910390fd5b6000831180156136b55750600082115b61370a576040517f08c379a0000000000000000000000000000000000000000000000000000000008152600401808060200182810382526028815260200180614b776028913960400191505060405180910390fd5b60006137216103e58661469990919063ffffffff16565b90506000613738848361469990919063ffffffff16565b90506000613763836137556103e88961469990919063ffffffff16565b61472e90919063ffffffff16565b905080828161376e57fe5b0493505050509392505050565b60606002825110156137f5576040517f08c379a000000000000000000000000000000000000000000000000000000000815260040180806020018281038252601e8152602001807f556e697377617056324c6962726172793a20494e56414c49445f50415448000081525060200191505060405180910390fd5b815167ffffffffffffffff8111801561380d57600080fd5b5060405190808252806020026020018201604052801561383c5781602001602082028036833780820191505090505b509050828160008151811061384d57fe5b60200260200101818152505060005b60018351038110156138eb5760008061389f8786858151811061387b57fe5b602002602001015187600187018151811061389257fe5b60200260200101516147b1565b915091506138c18484815181106138b257fe5b6020026020010151838361364b565b8460018501815181106138d057fe5b6020026020010181815250505050808060010191505061385c565b509392505050565b6000806000613902858561416e565b91509150858282604051602001808373ffffffffffffffffffffffffffffffffffffffff1673ffffffffffffffffffffffffffffffffffffffff1660601b81526014018273ffffffffffffffffffffffffffffffffffffffff1673ffffffffffffffffffffffffffffffffffffffff1660601b8152601401925050506040516020818303038152906040528051906020012060405160200180807fff000000000000000000000000000000000000000000000000000000000000008152506001018373ffffffffffffffffffffffffffffffffffffffff1673ffffffffffffffffffffffffffffffffffffffff1660601b8152601401828152602001807f307d8979d63f252b339e76cb7ad2a45470746aa38687a002f0236ff8ffdf2a5e815250602001925050506040516020818303038152906040528051906020012060001c925050509392505050565b600060608573ffffffffffffffffffffffffffffffffffffffff166323b872dd868686604051602401808473ffffffffffffffffffffffffffffffffffffffff1673ffffffffffffffffffffffffffffffffffffffff1681526020018373ffffffffffffffffffffffffffffffffffffffff1673ffffffffffffffffffffffffffffffffffffffff16815260200182815260200193505050506040516020818303038152906040529060e01b6020820180517bffffffffffffffffffffffffffffffffffffffffffffffffffffffff83818316178352505050506040518082805190602001908083835b60208310613b5b5780518252602082019150602081019050602083039250613b38565b6001836020036101000a0380198251168184511680821785525050505050509050019150506000604051808303816000865af19150503d8060008114613bbd576040519150601f19603f3d011682016040523d82523d6000602084013e613bc2565b606091505b5091509150818015613c025750600081511480613c015750808060200190516020811015613bef57600080fd5b81019080805190602001909291905050505b5b613c57576040517f08c379a0000000000000000000000000000000000000000000000000000000008152600401808060200182810382526031815260200180614ac76031913960400191505060405180910390fd5b505050505050565b60005b6001835103811015613f0457600080848381518110613c7d57fe5b6020026020010151856001850181518110613c9457fe5b6020026020010151915091506000613cac838361416e565b5090506000876001860181518110613cc057fe5b602002602001015190506000808373ffffffffffffffffffffffffffffffffffffffff168673ffffffffffffffffffffffffffffffffffffffff1614613d0857826000613d0c565b6000835b91509150600060028a51038810613d235788613d65565b613d647f0000000000000000000000000000000000000000000000000000000000000000878c60028c0181518110613d5757fe5b60200260200101516138f3565b5b9050613d927f000000000000000000000000000000000000000000000000000000000000000088886138f3565b73ffffffffffffffffffffffffffffffffffffffff1663022c0d9f848484600067ffffffffffffffff81118015613dc857600080fd5b506040519080825280601f01601f191660200182016040528015613dfb5781602001600182028036833780820191505090505b506040518563ffffffff1660e01b8152600401808581526020018481526020018373ffffffffffffffffffffffffffffffffffffffff1673ffffffffffffffffffffffffffffffffffffffff16815260200180602001828103825283818151815260200191508051906020019080838360005b83811015613e89578082015181840152602081019050613e6e565b50505050905090810190601f168015613eb65780820380516001836020036101000a031916815260200191505b5095505050505050600060405180830381600087803b158015613ed857600080fd5b505af1158015613eec573d6000803e3d6000fd5b50505050505050505050508080600101915050613c62565b50505050565b6060600282511015613f84576040517f08c379a000000000000000000000000000000000000000000000000000000000815260040180806020018281038252601e8152602001807f556e697377617056324c6962726172793a20494e56414c49445f50415448000081525060200191505060405180910390fd5b815167ffffffffffffffff81118015613f9c57600080fd5b50604051908082528060200260200182016040528015613fcb5781602001602082028036833780820191505090505b5090508281600183510381518110613fdf57fe5b6020026020010181815250506000600183510390505b6000811115614082576000806140358786600186038151811061401457fe5b602002602001015187868151811061402857fe5b60200260200101516147b1565b9150915061405784848151811061404857fe5b602002602001015183836148da565b84600185038151811061406657fe5b6020026020010181815250505050808060019003915050613ff5565b509392505050565b60008084116140e4576040517f08c379a0000000000000000000000000000000000000000000000000000000008152600401808060200182810382526025815260200180614b9f6025913960400191505060405180910390fd5b6000831180156140f45750600082115b614149576040517f08c379a0000000000000000000000000000000000000000000000000000000008152600401808060200182810382526028815260200180614b776028913960400191505060405180910390fd5b8261415d838661469990919063ffffffff16565b8161416457fe5b0490509392505050565b6000808273ffffffffffffffffffffffffffffffffffffffff168473ffffffffffffffffffffffffffffffffffffffff1614156141f6576040517f08c379a0000000000000000000000000000000000000000000000000000000008152600401808060200182810382526025815260200180614b2c6025913960400191505060405180910390fd5b8273ffffffffffffffffffffffffffffffffffffffff168473ffffffffffffffffffffffffffffffffffffffff1610614230578284614233565b83835b8092508193505050600073ffffffffffffffffffffffffffffffffffffffff168273ffffffffffffffffffffffffffffffffffffffff1614156142de576040517f08c379a000000000000000000000000000000000000000000000000000000000815260040180806020018281038252601e8152602001807f556e697377617056324c6962726172793a205a45524f5f41444452455353000081525060200191505060405180910390fd5b9250929050565b600080600073ffffffffffffffffffffffffffffffffffffffff167f000000000000000000000000000000000000000000000000000000000000000073ffffffffffffffffffffffffffffffffffffffff1663e6a439058a8a6040518363ffffffff1660e01b8152600401808373ffffffffffffffffffffffffffffffffffffffff1673ffffffffffffffffffffffffffffffffffffffff1681526020018273ffffffffffffffffffffffffffffffffffffffff1673ffffffffffffffffffffffffffffffffffffffff1681526020019250505060206040518083038186803b1580156143d157600080fd5b505afa1580156143e5573d6000803e3d6000fd5b505050506040513d60208110156143fb57600080fd5b810190808051906020019092919050505073ffffffffffffffffffffffffffffffffffffffff161415614538577f000000000000000000000000000000000000000000000000000000000000000073ffffffffffffffffffffffffffffffffffffffff1663c9c6539689896040518363ffffffff1660e01b8152600401808373ffffffffffffffffffffffffffffffffffffffff1673ffffffffffffffffffffffffffffffffffffffff1681526020018273ffffffffffffffffffffffffffffffffffffffff1673ffffffffffffffffffffffffffffffffffffffff16815260200192505050602060405180830381600087803b1580156144fb57600080fd5b505af115801561450f573d6000803e3d6000fd5b505050506040513d602081101561452557600080fd5b8101908080519060200190929190505050505b6000806145667f00000000000000000000000000000000000000000000000000000000000000008b8b6147b1565b9150915060008214801561457a5750600081145b1561458e578787809450819550505061468c565b600061459b89848461408a565b905087811161460c57858110156145fd576040517f08c379a0000000000000000000000000000000000000000000000000000000008152600401808060200182810382526026815260200180614b516026913960400191505060405180910390fd5b8881809550819650505061468a565b600061461989848661408a565b90508981111561462557fe5b8781101561467e576040517f08c379a0000000000000000000000000000000000000000000000000000000008152600401808060200182810382526026815260200180614beb6026913960400191505060405180910390fd5b80898096508197505050505b505b5050965096945050505050565b6000808214806146b657508282838502925082816146b357fe5b04145b614728576040517f08c379a00000000000000000000000000000000000000000000000000000000081526004018080602001828103825260148152602001807f64732d6d6174682d6d756c2d6f766572666c6f7700000000000000000000000081525060200191505060405180910390fd5b92915050565b60008282840191508110156147ab576040517f08c379a00000000000000000000000000000000000000000000000000000000081526004018080602001828103825260148152602001807f64732d6d6174682d6164642d6f766572666c6f7700000000000000000000000081525060200191505060405180910390fd5b92915050565b60008060006147c0858561416e565b5090506000806147d18888886138f3565b73ffffffffffffffffffffffffffffffffffffffff16630902f1ac6040518163ffffffff1660e01b815260040160606040518083038186803b15801561481657600080fd5b505afa15801561482a573d6000803e3d6000fd5b505050506040513d606081101561484057600080fd5b81019080805190602001909291908051906020019092919080519060200190929190505050506dffffffffffffffffffffffffffff1691506dffffffffffffffffffffffffffff1691508273ffffffffffffffffffffffffffffffffffffffff168773ffffffffffffffffffffffffffffffffffffffff16146148c45780826148c7565b81815b8095508196505050505050935093915050565b6000808411614934576040517f08c379a000000000000000000000000000000000000000000000000000000000815260040180806020018281038252602c815260200180614a9b602c913960400191505060405180910390fd5b6000831180156149445750600082115b614999576040517f08c379a0000000000000000000000000000000000000000000000000000000008152600401808060200182810382526028815260200180614b776028913960400191505060405180910390fd5b60006149c26103e86149b4878761469990919063ffffffff16565b61469990919063ffffffff16565b905060006149ed6103e56149df8887614a1790919063ffffffff16565b61469990919063ffffffff16565b9050614a0c60018284816149fd57fe5b0461472e90919063ffffffff16565b925050509392505050565b6000828284039150811115614a94576040517f08c379a00000000000000000000000000000000000000000000000000000000081526004018080602001828103825260158152602001807f64732d6d6174682d7375622d756e646572666c6f77000000000000000000000081525060200191505060405180910390fd5b9291505056fe556e697377617056324c6962726172793a20494e53554646494349454e545f4f55545055545f414d4f554e545472616e7366657248656c7065723a3a7472616e7366657246726f6d3a207472616e7366657246726f6d206661696c65645472616e7366657248656c7065723a3a736166655472616e736665724554483a20455448207472616e73666572206661696c6564556e697377617056324c6962726172793a204944454e544943414c5f414444524553534553556e69737761705632526f757465723a20494e53554646494349454e545f425f414d4f554e54556e697377617056324c6962726172793a20494e53554646494349454e545f4c4951554944495459556e697377617056324c6962726172793a20494e53554646494349454e545f414d4f554e54556e69737761705632526f757465723a204558434553534956455f494e5055545f414d4f554e54556e69737761705632526f757465723a20494e53554646494349454e545f415f414d4f554e54556e69737761705632526f757465723a20494e53554646494349454e545f4f55545055545f414d4f554e545472616e7366657248656c7065723a3a736166655472616e736665723a207472616e73666572206661696c6564556e697377617056324c6962726172793a20494e53554646494349454e545f494e5055545f414d4f554e54a2646970667358221220e8592b6eb5c243fce672b4b3a95c207ea1827be9261ca4840eabcc34619a10c964736f6c63430006060033",
  "linkReferences": {},
  "deployedLinkReferences": {}
}